{
  "contractName": "Study",
  "abi": [
    {
      "constant": false,
      "inputs": [
        {
          "name": "_ManagerID",
          "type": "uint256"
        },
        {
          "name": "_ManagerAddress",
          "type": "address"
        }
      ],
      "name": "managerInsert",
      "outputs": [
        {
          "name": "",
          "type": "bool"
        }
      ],
      "payable": false,
      "stateMutability": "nonpayable",
      "type": "function"
    },
    {
      "constant": false,
      "inputs": [
        {
          "name": "_StudentID",
          "type": "uint256"
        },
        {
          "name": "_StudentName",
          "type": "string"
        },
        {
          "name": "_StudentClass",
          "type": "uint256"
        },
        {
          "name": "_LoginKey",
          "type": "string"
        },
        {
          "name": "_UnlockKey",
          "type": "string"
        },
        {
          "name": "_StudentAddress",
          "type": "address"
        }
      ],
      "name": "studentInsert",
      "outputs": [
        {
          "name": "",
          "type": "bool"
        }
      ],
      "payable": false,
      "stateMutability": "nonpayable",
      "type": "function"
    },
    {
      "constant": false,
      "inputs": [
        {
          "name": "_StudentID",
          "type": "uint256"
        },
        {
          "name": "_StudentAddress",
          "type": "address"
        },
        {
          "name": "_UnlockKey",
          "type": "string"
        }
      ],
      "name": "studentAddressChange",
      "outputs": [
        {
          "name": "",
          "type": "bool"
        }
      ],
      "payable": false,
      "stateMutability": "nonpayable",
      "type": "function"
    },
    {
      "constant": false,
      "inputs": [
        {
          "name": "_StudentID",
          "type": "uint256"
        },
        {
          "name": "_LoginKey",
          "type": "string"
        }
      ],
      "name": "studentLoginKeyChange",
      "outputs": [
        {
          "name": "",
          "type": "bool"
        }
      ],
      "payable": false,
      "stateMutability": "nonpayable",
      "type": "function"
    },
    {
      "constant": false,
      "inputs": [
        {
          "name": "_CourseID",
          "type": "uint256"
        },
        {
          "name": "_CourseName",
          "type": "string"
        },
        {
          "name": "_RequiredTime",
          "type": "uint256"
        },
        {
          "name": "_Advanced",
          "type": "uint256[]"
        },
        {
          "name": "_Percentage",
          "type": "uint256[]"
        },
        {
          "name": "_Compulsory",
          "type": "bool"
        }
      ],
      "name": "courseInfoChange",
      "outputs": [
        {
          "name": "",
          "type": "bool"
        }
      ],
      "payable": false,
      "stateMutability": "nonpayable",
      "type": "function"
    },
    {
      "constant": false,
      "inputs": [
        {
          "name": "_StudentID",
          "type": "uint256"
        },
        {
          "name": "_CourseID",
          "type": "uint256"
        },
        {
          "name": "_TestTimes",
          "type": "uint256"
        },
        {
          "name": "_TestGrade",
          "type": "uint256"
        }
      ],
      "name": "testGradeSave",
      "outputs": [
        {
          "name": "",
          "type": "bool"
        }
      ],
      "payable": false,
      "stateMutability": "nonpayable",
      "type": "function"
    },
    {
      "constant": false,
      "inputs": [
        {
          "name": "_StudentID",
          "type": "uint256"
        },
        {
          "name": "_CourseID",
          "type": "uint256"
        }
      ],
      "name": "previewEnd",
      "outputs": [
        {
          "name": "",
          "type": "bool"
        }
      ],
      "payable": false,
      "stateMutability": "nonpayable",
      "type": "function"
    },
    {
      "constant": false,
      "inputs": [
        {
          "name": "_StudentID",
          "type": "uint256"
        },
        {
          "name": "_CourseID",
          "type": "uint256"
        }
      ],
      "name": "chooseCourse",
      "outputs": [
        {
          "name": "",
          "type": "bool"
        }
      ],
      "payable": false,
      "stateMutability": "nonpayable",
      "type": "function"
    },
    {
      "constant": false,
      "inputs": [
        {
          "name": "_StudentID",
          "type": "uint256"
        },
        {
          "name": "_CourseID",
          "type": "uint256"
        }
      ],
      "name": "previewStart",
      "outputs": [
        {
          "name": "",
          "type": "bool"
        }
      ],
      "payable": false,
      "stateMutability": "nonpayable",
      "type": "function"
    },
    {
      "constant": false,
      "inputs": [
        {
          "name": "_StudentID",
          "type": "uint256"
        },
        {
          "name": "_StudentClass",
          "type": "uint256"
        },
        {
          "name": "_StudentName",
          "type": "string"
        }
      ],
      "name": "studentInfoChange",
      "outputs": [
        {
          "name": "",
          "type": "bool"
        }
      ],
      "payable": false,
      "stateMutability": "nonpayable",
      "type": "function"
    },
    {
      "constant": false,
      "inputs": [
        {
          "name": "_StudentID",
          "type": "uint256"
        },
        {
          "name": "_CourseID",
          "type": "uint256"
        },
        {
          "name": "_TestGrade",
          "type": "uint256"
        }
      ],
      "name": "previewTest",
      "outputs": [
        {
          "name": "",
          "type": "bool"
        }
      ],
      "payable": false,
      "stateMutability": "nonpayable",
      "type": "function"
    },
    {
      "constant": false,
      "inputs": [
        {
          "name": "_StudentID",
          "type": "uint256"
        },
        {
          "name": "_CourseID",
          "type": "uint256"
        }
      ],
      "name": "learningEnd",
      "outputs": [
        {
          "name": "",
          "type": "bool"
        }
      ],
      "payable": false,
      "stateMutability": "nonpayable",
      "type": "function"
    },
    {
      "constant": false,
      "inputs": [
        {
          "name": "_CourseID",
          "type": "uint256"
        },
        {
          "name": "_CourseName",
          "type": "string"
        },
        {
          "name": "_RequiredTime",
          "type": "uint256"
        },
        {
          "name": "_Advanced",
          "type": "uint256[]"
        },
        {
          "name": "_Percentage",
          "type": "uint256[]"
        },
        {
          "name": "_Compulsory",
          "type": "bool"
        }
      ],
      "name": "courseInsert",
      "outputs": [
        {
          "name": "",
          "type": "bool"
        }
      ],
      "payable": false,
      "stateMutability": "nonpayable",
      "type": "function"
    },
    {
      "constant": false,
      "inputs": [
        {
          "name": "_StudentID",
          "type": "uint256"
        },
        {
          "name": "_CourseID",
          "type": "uint256"
        }
      ],
      "name": "withdrew",
      "outputs": [
        {
          "name": "",
          "type": "bool"
        }
      ],
      "payable": false,
      "stateMutability": "nonpayable",
      "type": "function"
    },
    {
      "inputs": [
        {
          "name": "_ManagerID",
          "type": "uint256"
        }
      ],
      "payable": false,
      "stateMutability": "nonpayable",
      "type": "constructor"
    }
  ],
  "bytecode": "0x6060604052739d1c942956fb29eeb19861f40ddd02baba34db9e6000806101000a81548173ffffffffffffffffffffffffffffffffffffffff021916908373ffffffffffffffffffffffffffffffffffffffff16021790555034156200006457600080fd5b60405160208062005ec0833981016040528080519060200190919050506000809054906101000a900473ffffffffffffffffffffffffffffffffffffffff1673ffffffffffffffffffffffffffffffffffffffff1663fc76657a82336000604051602001526040518363ffffffff167c0100000000000000000000000000000000000000000000000000000000028152600401808381526020018273ffffffffffffffffffffffffffffffffffffffff1673ffffffffffffffffffffffffffffffffffffffff16815260200192505050602060405180830381600087803b15156200014e57600080fd5b6102c65a03f115156200016057600080fd5b505050604051805190505050615d44806200017c6000396000f3006060604052600436106100d0576000357c0100000000000000000000000000000000000000000000000000000000900463ffffffff1680630a72dca6146100d55780631eddcd3e1461012f5780632451bca91461025b57806327096c86146102f85780632e75bf6d14610376578063624a3d6b1461048857806369fa9731146104de57806377576f1c14610522578063a346fbf114610566578063c0cb8189146105aa578063c178cc0a14610631578063d6685ae31461067e578063dcf4f34b146106c2578063e01ef4b8146107d4575b600080fd5b34156100e057600080fd5b610115600480803590602001909190803573ffffffffffffffffffffffffffffffffffffffff16906020019091905050610818565b604051808215151515815260200191505060405180910390f35b341561013a57600080fd5b610241600480803590602001909190803590602001908201803590602001908080601f0160208091040260200160405190810160405280939291908181526020018383808284378201915050505050509190803590602001909190803590602001908201803590602001908080601f0160208091040260200160405190810160405280939291908181526020018383808284378201915050505050509190803590602001908201803590602001908080601f0160208091040260200160405190810160405280939291908181526020018383808284378201915050505050509190803573ffffffffffffffffffffffffffffffffffffffff16906020019091905050610ae6565b604051808215151515815260200191505060405180910390f35b341561026657600080fd5b6102de600480803590602001909190803573ffffffffffffffffffffffffffffffffffffffff1690602001909190803590602001908201803590602001908080601f01602080910402602001604051908101604052809392919081815260200183838082843782019150505050505091905050611388565b604051808215151515815260200191505060405180910390f35b341561030357600080fd5b61035c600480803590602001909190803590602001908201803590602001908080601f0160208091040260200160405190810160405280939291908181526020018383808284378201915050505050509190505061180e565b604051808215151515815260200191505060405180910390f35b341561038157600080fd5b61046e600480803590602001909190803590602001908201803590602001908080601f0160208091040260200160405190810160405280939291908181526020018383808284378201915050505050509190803590602001909190803590602001908201803590602001908080602002602001604051908101604052809392919081815260200183836020028082843782019150505050505091908035906020019082018035906020019080806020026020016040519081016040528093929190818152602001838360200280828437820191505050505050919080351515906020019091905050611bc1565b604051808215151515815260200191505060405180910390f35b341561049357600080fd5b6104c4600480803590602001909190803590602001909190803590602001909190803590602001909190505061225f565b604051808215151515815260200191505060405180910390f35b34156104e957600080fd5b6105086004808035906020019091908035906020019091905050612bf7565b604051808215151515815260200191505060405180910390f35b341561052d57600080fd5b61054c60048080359060200190919080359060200190919050506133b3565b604051808215151515815260200191505060405180910390f35b341561057157600080fd5b6105906004808035906020019091908035906020019091905050613a95565b604051808215151515815260200191505060405180910390f35b34156105b557600080fd5b610617600480803590602001909190803590602001909190803590602001908201803590602001908080601f0160208091040260200160405190810160405280939291908181526020018383808284378201915050505050509190505061401c565b604051808215151515815260200191505060405180910390f35b341561063c57600080fd5b6106646004808035906020019091908035906020019091908035906020019091905050614651565b604051808215151515815260200191505060405180910390f35b341561068957600080fd5b6106a860048080359060200190919080359060200190919050506149bf565b604051808215151515815260200191505060405180910390f35b34156106cd57600080fd5b6107ba600480803590602001909190803590602001908201803590602001908080601f01602080910402602001604051908101604052809392919081815260200183838082843782019150505050505091908035906020019091908035906020019082018035906020019080806020026020016040519081016040528093929190818152602001838360200280828437820191505050505050919080359060200190820180359060200190808060200260200160405190810160405280939291908181526020018383602002808284378201915050505050509190803515159060200190919050506151cf565b604051808215151515815260200191505060405180910390f35b34156107df57600080fd5b6107fe600480803590602001909190803590602001909190505061586e565b604051808215151515815260200191505060405180910390f35b60008060009054906101000a900473ffffffffffffffffffffffffffffffffffffffff1673ffffffffffffffffffffffffffffffffffffffff1663a7e88553336000604051602001526040518263ffffffff167c0100000000000000000000000000000000000000000000000000000000028152600401808273ffffffffffffffffffffffffffffffffffffffff1673ffffffffffffffffffffffffffffffffffffffff168152602001915050602060405180830381600087803b15156108de57600080fd5b6102c65a03f115156108ef57600080fd5b5050506040518051905080156109e857506000809054906101000a900473ffffffffffffffffffffffffffffffffffffffff1673ffffffffffffffffffffffffffffffffffffffff16635a88fa6684846000604051602001526040518363ffffffff167c0100000000000000000000000000000000000000000000000000000000028152600401808381526020018273ffffffffffffffffffffffffffffffffffffffff1673ffffffffffffffffffffffffffffffffffffffff16815260200192505050602060405180830381600087803b15156109cc57600080fd5b6102c65a03f115156109dd57600080fd5b505050604051805190505b15610adb576000809054906101000a900473ffffffffffffffffffffffffffffffffffffffff1673ffffffffffffffffffffffffffffffffffffffff1663fc76657a84846000604051602001526040518363ffffffff167c0100000000000000000000000000000000000000000000000000000000028152600401808381526020018273ffffffffffffffffffffffffffffffffffffffff1673ffffffffffffffffffffffffffffffffffffffff16815260200192505050602060405180830381600087803b1515610ab957600080fd5b6102c65a03f11515610aca57600080fd5b505050604051805190509050610ae0565b600090505b92915050565b60008060009054906101000a900473ffffffffffffffffffffffffffffffffffffffff1673ffffffffffffffffffffffffffffffffffffffff1663a7e88553336000604051602001526040518263ffffffff167c0100000000000000000000000000000000000000000000000000000000028152600401808273ffffffffffffffffffffffffffffffffffffffff1673ffffffffffffffffffffffffffffffffffffffff168152602001915050602060405180830381600087803b1515610bac57600080fd5b6102c65a03f11515610bbd57600080fd5b505050604051805190508015610c8357506000809054906101000a900473ffffffffffffffffffffffffffffffffffffffff1673ffffffffffffffffffffffffffffffffffffffff1663a5ba100f886000604051602001526040518263ffffffff167c010000000000000000000000000000000000000000000000000000000002815260040180828152602001915050602060405180830381600087803b1515610c6657600080fd5b6102c65a03f11515610c7757600080fd5b50505060405180519050155b8015610d6b57506000809054906101000a900473ffffffffffffffffffffffffffffffffffffffff1673ffffffffffffffffffffffffffffffffffffffff16636f8e0196836000604051602001526040518263ffffffff167c0100000000000000000000000000000000000000000000000000000000028152600401808273ffffffffffffffffffffffffffffffffffffffff1673ffffffffffffffffffffffffffffffffffffffff168152602001915050602060405180830381600087803b1515610d4e57600080fd5b6102c65a03f11515610d5f57600080fd5b50505060405180519050155b15611379576000809054906101000a900473ffffffffffffffffffffffffffffffffffffffff1673ffffffffffffffffffffffffffffffffffffffff166357b8bd06886040518263ffffffff167c010000000000000000000000000000000000000000000000000000000002815260040180828152602001915050600060405180830381600087803b1515610dff57600080fd5b6102c65a03f11515610e1057600080fd5b5050506000809054906101000a900473ffffffffffffffffffffffffffffffffffffffff1673ffffffffffffffffffffffffffffffffffffffff1663704979c588886040518363ffffffff167c01000000000000000000000000000000000000000000000000000000000281526004018083815260200180602001828103825283818151815260200191508051906020019080838360005b83811015610ec3578082015181840152602081019050610ea8565b50505050905090810190601f168015610ef05780820380516001836020036101000a031916815260200191505b509350505050600060405180830381600087803b1515610f0f57600080fd5b6102c65a03f11515610f2057600080fd5b5050506000809054906101000a900473ffffffffffffffffffffffffffffffffffffffff1673ffffffffffffffffffffffffffffffffffffffff1663bd210d9488876040518363ffffffff167c01000000000000000000000000000000000000000000000000000000000281526004018083815260200182815260200192505050600060405180830381600087803b1515610fba57600080fd5b6102c65a03f11515610fcb57600080fd5b5050506000809054906101000a900473ffffffffffffffffffffffffffffffffffffffff1673ffffffffffffffffffffffffffffffffffffffff1663ba249b6888866040518363ffffffff167c01000000000000000000000000000000000000000000000000000000000281526004018083815260200180602001828103825283818151815260200191508051906020019080838360005b8381101561107e578082015181840152602081019050611063565b50505050905090810190601f1680156110ab5780820380516001836020036101000a031916815260200191505b509350505050600060405180830381600087803b15156110ca57600080fd5b6102c65a03f115156110db57600080fd5b5050506000809054906101000a900473ffffffffffffffffffffffffffffffffffffffff1673ffffffffffffffffffffffffffffffffffffffff1663187f801688856040518363ffffffff167c01000000000000000000000000000000000000000000000000000000000281526004018083815260200180602001828103825283818151815260200191508051906020019080838360005b8381101561118e578082015181840152602081019050611173565b50505050905090810190601f1680156111bb5780820380516001836020036101000a031916815260200191505b509350505050600060405180830381600087803b15156111da57600080fd5b6102c65a03f115156111eb57600080fd5b5050506000809054906101000a900473ffffffffffffffffffffffffffffffffffffffff1673ffffffffffffffffffffffffffffffffffffffff166302adbf9188846040518363ffffffff167c0100000000000000000000000000000000000000000000000000000000028152600401808381526020018273ffffffffffffffffffffffffffffffffffffffff1673ffffffffffffffffffffffffffffffffffffffff16815260200192505050600060405180830381600087803b15156112b157600080fd5b6102c65a03f115156112c257600080fd5b5050506000809054906101000a900473ffffffffffffffffffffffffffffffffffffffff1673ffffffffffffffffffffffffffffffffffffffff16639d1c840b86896040518363ffffffff167c01000000000000000000000000000000000000000000000000000000000281526004018083815260200182815260200192505050600060405180830381600087803b151561135c57600080fd5b6102c65a03f1151561136d57600080fd5b5050506001905061137e565b600090505b9695505050505050565b60008060009054906101000a900473ffffffffffffffffffffffffffffffffffffffff1673ffffffffffffffffffffffffffffffffffffffff1663a7e88553336000604051602001526040518263ffffffff167c0100000000000000000000000000000000000000000000000000000000028152600401808273ffffffffffffffffffffffffffffffffffffffff1673ffffffffffffffffffffffffffffffffffffffff168152602001915050602060405180830381600087803b151561144e57600080fd5b6102c65a03f1151561145f57600080fd5b50505060405180519050801561152457506000809054906101000a900473ffffffffffffffffffffffffffffffffffffffff1673ffffffffffffffffffffffffffffffffffffffff1663a5ba100f856000604051602001526040518263ffffffff167c010000000000000000000000000000000000000000000000000000000002815260040180828152602001915050602060405180830381600087803b151561150857600080fd5b6102c65a03f1151561151957600080fd5b505050604051805190505b801561160c57506000809054906101000a900473ffffffffffffffffffffffffffffffffffffffff1673ffffffffffffffffffffffffffffffffffffffff16636f8e0196846000604051602001526040518263ffffffff167c0100000000000000000000000000000000000000000000000000000000028152600401808273ffffffffffffffffffffffffffffffffffffffff1673ffffffffffffffffffffffffffffffffffffffff168152602001915050602060405180830381600087803b15156115ef57600080fd5b6102c65a03f1151561160057600080fd5b50505060405180519050155b156117fd576000809054906101000a900473ffffffffffffffffffffffffffffffffffffffff1673ffffffffffffffffffffffffffffffffffffffff1663187f801685846040518363ffffffff167c01000000000000000000000000000000000000000000000000000000000281526004018083815260200180602001828103825283818151815260200191508051906020019080838360005b838110156116c15780820151818401526020810190506116a6565b50505050905090810190601f1680156116ee5780820380516001836020036101000a031916815260200191505b509350505050600060405180830381600087803b151561170d57600080fd5b6102c65a03f1151561171e57600080fd5b5050506000809054906101000a900473ffffffffffffffffffffffffffffffffffffffff1673ffffffffffffffffffffffffffffffffffffffff166302adbf9185856040518363ffffffff167c0100000000000000000000000000000000000000000000000000000000028152600401808381526020018273ffffffffffffffffffffffffffffffffffffffff1673ffffffffffffffffffffffffffffffffffffffff16815260200192505050600060405180830381600087803b15156117e457600080fd5b6102c65a03f115156117f557600080fd5b505050611806565b60009050611807565b5b9392505050565b60008060009054906101000a900473ffffffffffffffffffffffffffffffffffffffff1673ffffffffffffffffffffffffffffffffffffffff1663a7e88553336000604051602001526040518263ffffffff167c0100000000000000000000000000000000000000000000000000000000028152600401808273ffffffffffffffffffffffffffffffffffffffff1673ffffffffffffffffffffffffffffffffffffffff168152602001915050602060405180830381600087803b15156118d457600080fd5b6102c65a03f115156118e557600080fd5b50505060405180519050806119dd57506000809054906101000a900473ffffffffffffffffffffffffffffffffffffffff1673ffffffffffffffffffffffffffffffffffffffff16631a8cb11884336000604051602001526040518363ffffffff167c0100000000000000000000000000000000000000000000000000000000028152600401808381526020018273ffffffffffffffffffffffffffffffffffffffff1673ffffffffffffffffffffffffffffffffffffffff16815260200192505050602060405180830381600087803b15156119c157600080fd5b6102c65a03f115156119d257600080fd5b505050604051805190505b8015611a9857506000809054906101000a900473ffffffffffffffffffffffffffffffffffffffff1673ffffffffffffffffffffffffffffffffffffffff1663a5ba100f846000604051602001526040518263ffffffff167c010000000000000000000000000000000000000000000000000000000002815260040180828152602001915050602060405180830381600087803b1515611a7c57600080fd5b6102c65a03f11515611a8d57600080fd5b505050604051805190505b15611bb6576000809054906101000a900473ffffffffffffffffffffffffffffffffffffffff1673ffffffffffffffffffffffffffffffffffffffff1663ba249b6884846040518363ffffffff167c01000000000000000000000000000000000000000000000000000000000281526004018083815260200180602001828103825283818151815260200191508051906020019080838360005b83811015611b4d578082015181840152602081019050611b32565b50505050905090810190601f168015611b7a5780820380516001836020036101000a031916815260200191505b509350505050600060405180830381600087803b1515611b9957600080fd5b6102c65a03f11515611baa57600080fd5b50505060019050611bbb565b600090505b92915050565b60008060009054906101000a900473ffffffffffffffffffffffffffffffffffffffff1673ffffffffffffffffffffffffffffffffffffffff1663a7e88553336000604051602001526040518263ffffffff167c0100000000000000000000000000000000000000000000000000000000028152600401808273ffffffffffffffffffffffffffffffffffffffff1673ffffffffffffffffffffffffffffffffffffffff168152602001915050602060405180830381600087803b1515611c8757600080fd5b6102c65a03f11515611c9857600080fd5b505050604051805190508015611d5d57506000809054906101000a900473ffffffffffffffffffffffffffffffffffffffff1673ffffffffffffffffffffffffffffffffffffffff16632e945ee4886000604051602001526040518263ffffffff167c010000000000000000000000000000000000000000000000000000000002815260040180828152602001915050602060405180830381600087803b1515611d4157600080fd5b6102c65a03f11515611d5257600080fd5b505050604051805190505b15612250576000809054906101000a900473ffffffffffffffffffffffffffffffffffffffff1673ffffffffffffffffffffffffffffffffffffffff1663c4663c08886040518263ffffffff167c010000000000000000000000000000000000000000000000000000000002815260040180828152602001915050600060405180830381600087803b1515611df157600080fd5b6102c65a03f11515611e0257600080fd5b5050506000809054906101000a900473ffffffffffffffffffffffffffffffffffffffff1673ffffffffffffffffffffffffffffffffffffffff16639e12237788886040518363ffffffff167c01000000000000000000000000000000000000000000000000000000000281526004018083815260200180602001828103825283818151815260200191508051906020019080838360005b83811015611eb5578082015181840152602081019050611e9a565b50505050905090810190601f168015611ee25780820380516001836020036101000a031916815260200191505b509350505050600060405180830381600087803b1515611f0157600080fd5b6102c65a03f11515611f1257600080fd5b5050506000809054906101000a900473ffffffffffffffffffffffffffffffffffffffff1673ffffffffffffffffffffffffffffffffffffffff166313cadff788876040518363ffffffff167c01000000000000000000000000000000000000000000000000000000000281526004018083815260200182815260200192505050600060405180830381600087803b1515611fac57600080fd5b6102c65a03f11515611fbd57600080fd5b5050506000809054906101000a900473ffffffffffffffffffffffffffffffffffffffff1673ffffffffffffffffffffffffffffffffffffffff1663e512387a88866040518363ffffffff167c01000000000000000000000000000000000000000000000000000000000281526004018083815260200180602001828103825283818151815260200191508051906020019060200280838360005b83811015612073578082015181840152602081019050612058565b505050509050019350505050600060405180830381600087803b151561209857600080fd5b6102c65a03f115156120a957600080fd5b5050506000809054906101000a900473ffffffffffffffffffffffffffffffffffffffff1673ffffffffffffffffffffffffffffffffffffffff166373e7d58e88856040518363ffffffff167c01000000000000000000000000000000000000000000000000000000000281526004018083815260200180602001828103825283818151815260200191508051906020019060200280838360005b8381101561215f578082015181840152602081019050612144565b505050509050019350505050600060405180830381600087803b151561218457600080fd5b6102c65a03f1151561219557600080fd5b5050506000809054906101000a900473ffffffffffffffffffffffffffffffffffffffff1673ffffffffffffffffffffffffffffffffffffffff16634602bb1388846040518363ffffffff167c0100000000000000000000000000000000000000000000000000000000028152600401808381526020018215151515815260200192505050600060405180830381600087803b151561223357600080fd5b6102c65a03f1151561224457600080fd5b50505060019050612255565b600090505b9695505050505050565b60008060009054906101000a900473ffffffffffffffffffffffffffffffffffffffff1673ffffffffffffffffffffffffffffffffffffffff1663a7e88553336000604051602001526040518263ffffffff167c0100000000000000000000000000000000000000000000000000000000028152600401808273ffffffffffffffffffffffffffffffffffffffff1673ffffffffffffffffffffffffffffffffffffffff168152602001915050602060405180830381600087803b151561232557600080fd5b6102c65a03f1151561233657600080fd5b5050506040518051905015612bea5760008060009054906101000a900473ffffffffffffffffffffffffffffffffffffffff1673ffffffffffffffffffffffffffffffffffffffff1663046beb3a866000604051602001526040518263ffffffff167c010000000000000000000000000000000000000000000000000000000002815260040180828152602001915050602060405180830381600087803b15156123df57600080fd5b6102c65a03f115156123f057600080fd5b505050604051805190501115612727576004600681111561240d57fe5b6000809054906101000a900473ffffffffffffffffffffffffffffffffffffffff1673ffffffffffffffffffffffffffffffffffffffff1663e536a4a387876000604051602001526040518363ffffffff167c01000000000000000000000000000000000000000000000000000000000281526004018083815260200182815260200192505050602060405180830381600087803b15156124ad57600080fd5b6102c65a03f115156124be57600080fd5b5050506040518051905060068111156124d357fe5b1415156124e35760009050612bef565b600183016000809054906101000a900473ffffffffffffffffffffffffffffffffffffffff1673ffffffffffffffffffffffffffffffffffffffff1663d2b6085187876000604051602001526040518363ffffffff167c01000000000000000000000000000000000000000000000000000000000281526004018083815260200182815260200192505050602060405180830381600087803b151561258757600080fd5b6102c65a03f1151561259857600080fd5b50505060405180519050101561265f576000809054906101000a900473ffffffffffffffffffffffffffffffffffffffff1673ffffffffffffffffffffffffffffffffffffffff1663ac973bb28686600187016040518463ffffffff167c0100000000000000000000000000000000000000000000000000000000028152600401808481526020018381526020018281526020019350505050600060405180830381600087803b151561264a57600080fd5b6102c65a03f1151561265b57600080fd5b5050505b6000809054906101000a900473ffffffffffffffffffffffffffffffffffffffff1673ffffffffffffffffffffffffffffffffffffffff1663a039683a8686866103e887026040518563ffffffff167c010000000000000000000000000000000000000000000000000000000002815260040180858152602001848152602001838152602001828152602001945050505050600060405180830381600087803b151561270a57600080fd5b6102c65a03f1151561271b57600080fd5b50505060019050612bef565b6001600681111561273457fe5b6000809054906101000a900473ffffffffffffffffffffffffffffffffffffffff1673ffffffffffffffffffffffffffffffffffffffff1663e536a4a387876000604051602001526040518363ffffffff167c01000000000000000000000000000000000000000000000000000000000281526004018083815260200182815260200192505050602060405180830381600087803b15156127d457600080fd5b6102c65a03f115156127e557600080fd5b5050506040518051905060068111156127fa57fe5b141580156128d957506004600681111561281057fe5b6000809054906101000a900473ffffffffffffffffffffffffffffffffffffffff1673ffffffffffffffffffffffffffffffffffffffff1663e536a4a387876000604051602001526040518363ffffffff167c01000000000000000000000000000000000000000000000000000000000281526004018083815260200182815260200192505050602060405180830381600087803b15156128b057600080fd5b6102c65a03f115156128c157600080fd5b5050506040518051905060068111156128d657fe5b14155b156128e75760009050612bef565b826000809054906101000a900473ffffffffffffffffffffffffffffffffffffffff1673ffffffffffffffffffffffffffffffffffffffff1663d2b6085187876000604051602001526040518363ffffffff167c01000000000000000000000000000000000000000000000000000000000281526004018083815260200182815260200192505050602060405180830381600087803b151561298857600080fd5b6102c65a03f1151561299957600080fd5b505050604051805190501015612a5d576000809054906101000a900473ffffffffffffffffffffffffffffffffffffffff1673ffffffffffffffffffffffffffffffffffffffff1663ac973bb28686866040518463ffffffff167c0100000000000000000000000000000000000000000000000000000000028152600401808481526020018381526020018281526020019350505050600060405180830381600087803b1515612a4857600080fd5b6102c65a03f11515612a5957600080fd5b5050505b6000809054906101000a900473ffffffffffffffffffffffffffffffffffffffff1673ffffffffffffffffffffffffffffffffffffffff166325a9f8e7868660046040518463ffffffff167c010000000000000000000000000000000000000000000000000000000002815260040180848152602001838152602001826006811115612ae557fe5b60ff1681526020019350505050600060405180830381600087803b1515612b0b57600080fd5b6102c65a03f11515612b1c57600080fd5b5050506000809054906101000a900473ffffffffffffffffffffffffffffffffffffffff1673ffffffffffffffffffffffffffffffffffffffff1663a039683a8686600187036103e887026040518563ffffffff167c010000000000000000000000000000000000000000000000000000000002815260040180858152602001848152602001838152602001828152602001945050505050600060405180830381600087803b1515612bcd57600080fd5b6102c65a03f11515612bde57600080fd5b50505060019050612bef565b600090505b949350505050565b6000806000809054906101000a900473ffffffffffffffffffffffffffffffffffffffff1673ffffffffffffffffffffffffffffffffffffffff16631a8cb11885336000604051602001526040518363ffffffff167c0100000000000000000000000000000000000000000000000000000000028152600401808381526020018273ffffffffffffffffffffffffffffffffffffffff1673ffffffffffffffffffffffffffffffffffffffff16815260200192505050602060405180830381600087803b1515612cc657600080fd5b6102c65a03f11515612cd757600080fd5b505050604051805190508015612dbd575060026006811115612cf557fe5b6000809054906101000a900473ffffffffffffffffffffffffffffffffffffffff1673ffffffffffffffffffffffffffffffffffffffff1663e536a4a386866000604051602001526040518363ffffffff167c01000000000000000000000000000000000000000000000000000000000281526004018083815260200182815260200192505050602060405180830381600087803b1515612d9557600080fd5b6102c65a03f11515612da657600080fd5b505050604051805190506006811115612dbb57fe5b145b156133a7576000809054906101000a900473ffffffffffffffffffffffffffffffffffffffff1673ffffffffffffffffffffffffffffffffffffffff1663adac525f85856000604051602001526040518363ffffffff167c01000000000000000000000000000000000000000000000000000000000281526004018083815260200182815260200192505050602060405180830381600087803b1515612e6257600080fd5b6102c65a03f11515612e7357600080fd5b505050604051805190506000809054906101000a900473ffffffffffffffffffffffffffffffffffffffff1673ffffffffffffffffffffffffffffffffffffffff1663e08f109186866000604051602001526040518363ffffffff167c01000000000000000000000000000000000000000000000000000000000281526004018083815260200182815260200192505050602060405180830381600087803b1515612f1d57600080fd5b6102c65a03f11515612f2e57600080fd5b5050506040518051905042030190506000809054906101000a900473ffffffffffffffffffffffffffffffffffffffff1673ffffffffffffffffffffffffffffffffffffffff166390abb39f858560006040518463ffffffff167c0100000000000000000000000000000000000000000000000000000000028152600401808481526020018381526020018281526020019350505050600060405180830381600087803b1515612fdd57600080fd5b6102c65a03f11515612fee57600080fd5b5050506000809054906101000a900473ffffffffffffffffffffffffffffffffffffffff1673ffffffffffffffffffffffffffffffffffffffff1663046beb3a846000604051602001526040518263ffffffff167c010000000000000000000000000000000000000000000000000000000002815260040180828152602001915050602060405180830381600087803b151561308957600080fd5b6102c65a03f1151561309a57600080fd5b50505060405180519050811015613229576000809054906101000a900473ffffffffffffffffffffffffffffffffffffffff1673ffffffffffffffffffffffffffffffffffffffff1663985c97058585846040518463ffffffff167c0100000000000000000000000000000000000000000000000000000000028152600401808481526020018381526020018281526020019350505050600060405180830381600087803b151561314a57600080fd5b6102c65a03f1151561315b57600080fd5b5050506000809054906101000a900473ffffffffffffffffffffffffffffffffffffffff1673ffffffffffffffffffffffffffffffffffffffff166325a9f8e7858560016040518463ffffffff167c0100000000000000000000000000000000000000000000000000000000028152600401808481526020018381526020018260068111156131e657fe5b60ff1681526020019350505050600060405180830381600087803b151561320c57600080fd5b6102c65a03f1151561321d57600080fd5b505050600091506133ac565b6000809054906101000a900473ffffffffffffffffffffffffffffffffffffffff1673ffffffffffffffffffffffffffffffffffffffff166325a9f8e7858560036040518463ffffffff167c0100000000000000000000000000000000000000000000000000000000028152600401808481526020018381526020018260068111156132b157fe5b60ff1681526020019350505050600060405180830381600087803b15156132d757600080fd5b6102c65a03f115156132e857600080fd5b5050506000809054906101000a900473ffffffffffffffffffffffffffffffffffffffff1673ffffffffffffffffffffffffffffffffffffffff1663985c97058585846040518463ffffffff167c0100000000000000000000000000000000000000000000000000000000028152600401808481526020018381526020018281526020019350505050600060405180830381600087803b151561338a57600080fd5b6102c65a03f1151561339b57600080fd5b505050600191506133ac565b600091505b5092915050565b60008060009054906101000a900473ffffffffffffffffffffffffffffffffffffffff1673ffffffffffffffffffffffffffffffffffffffff16631a8cb11884336000604051602001526040518363ffffffff167c0100000000000000000000000000000000000000000000000000000000028152600401808381526020018273ffffffffffffffffffffffffffffffffffffffff1673ffffffffffffffffffffffffffffffffffffffff16815260200192505050602060405180830381600087803b151561348157600080fd5b6102c65a03f1151561349257600080fd5b50505060405180519050801561355757506000809054906101000a900473ffffffffffffffffffffffffffffffffffffffff1673ffffffffffffffffffffffffffffffffffffffff1663a5ba100f846000604051602001526040518263ffffffff167c010000000000000000000000000000000000000000000000000000000002815260040180828152602001915050602060405180830381600087803b151561353b57600080fd5b6102c65a03f1151561354c57600080fd5b505050604051805190505b801561361257506000809054906101000a900473ffffffffffffffffffffffffffffffffffffffff1673ffffffffffffffffffffffffffffffffffffffff16632e945ee4836000604051602001526040518263ffffffff167c010000000000000000000000000000000000000000000000000000000002815260040180828152602001915050602060405180830381600087803b15156135f657600080fd5b6102c65a03f1151561360757600080fd5b505050604051805190505b80156136d557506000809054906101000a900473ffffffffffffffffffffffffffffffffffffffff1673ffffffffffffffffffffffffffffffffffffffff1663fe701eae84846000604051602001526040518363ffffffff167c01000000000000000000000000000000000000000000000000000000000281526004018083815260200182815260200192505050602060405180830381600087803b15156136b957600080fd5b6102c65a03f115156136ca57600080fd5b505050604051805190505b80156137b15750600060068111156136e957fe5b6000809054906101000a900473ffffffffffffffffffffffffffffffffffffffff1673ffffffffffffffffffffffffffffffffffffffff1663e536a4a385856000604051602001526040518363ffffffff167c01000000000000000000000000000000000000000000000000000000000281526004018083815260200182815260200192505050602060405180830381600087803b151561378957600080fd5b6102c65a03f1151561379a57600080fd5b5050506040518051905060068111156137af57fe5b145b15613a8a576000809054906101000a900473ffffffffffffffffffffffffffffffffffffffff1673ffffffffffffffffffffffffffffffffffffffff16634de5807c8484856040518463ffffffff167c0100000000000000000000000000000000000000000000000000000000028152600401808481526020018381526020018281526020019350505050600060405180830381600087803b151561385557600080fd5b6102c65a03f1151561386657600080fd5b5050506000809054906101000a900473ffffffffffffffffffffffffffffffffffffffff1673ffffffffffffffffffffffffffffffffffffffff1663aff1d01584846040518363ffffffff167c01000000000000000000000000000000000000000000000000000000000281526004018083815260200182815260200192505050600060405180830381600087803b151561390057600080fd5b6102c65a03f1151561391157600080fd5b5050506000809054906101000a900473ffffffffffffffffffffffffffffffffffffffff1673ffffffffffffffffffffffffffffffffffffffff1663b7851f2084846040518363ffffffff167c01000000000000000000000000000000000000000000000000000000000281526004018083815260200182815260200192505050600060405180830381600087803b15156139ab57600080fd5b6102c65a03f115156139bc57600080fd5b5050506000809054906101000a900473ffffffffffffffffffffffffffffffffffffffff1673ffffffffffffffffffffffffffffffffffffffff166325a9f8e7848460016040518463ffffffff167c010000000000000000000000000000000000000000000000000000000002815260040180848152602001838152602001826006811115613a4757fe5b60ff1681526020019350505050600060405180830381600087803b1515613a6d57600080fd5b6102c65a03f11515613a7e57600080fd5b50505060019050613a8f565b600090505b92915050565b60008060009054906101000a900473ffffffffffffffffffffffffffffffffffffffff1673ffffffffffffffffffffffffffffffffffffffff16631a8cb11884336000604051602001526040518363ffffffff167c0100000000000000000000000000000000000000000000000000000000028152600401808381526020018273ffffffffffffffffffffffffffffffffffffffff1673ffffffffffffffffffffffffffffffffffffffff16815260200192505050602060405180830381600087803b1515613b6357600080fd5b6102c65a03f11515613b7457600080fd5b505050604051805190508015613c3c575060008060009054906101000a900473ffffffffffffffffffffffffffffffffffffffff1673ffffffffffffffffffffffffffffffffffffffff1663046beb3a846000604051602001526040518263ffffffff167c010000000000000000000000000000000000000000000000000000000002815260040180828152602001915050602060405180830381600087803b1515613c1f57600080fd5b6102c65a03f11515613c3057600080fd5b50505060405180519050115b8015613e8e575060016006811115613c5057fe5b6000809054906101000a900473ffffffffffffffffffffffffffffffffffffffff1673ffffffffffffffffffffffffffffffffffffffff1663e536a4a385856000604051602001526040518363ffffffff167c01000000000000000000000000000000000000000000000000000000000281526004018083815260200182815260200192505050602060405180830381600087803b1515613cf057600080fd5b6102c65a03f11515613d0157600080fd5b505050604051805190506006811115613d1657fe5b1480613e8d57506000809054906101000a900473ffffffffffffffffffffffffffffffffffffffff1673ffffffffffffffffffffffffffffffffffffffff1663046beb3a836000604051602001526040518263ffffffff167c010000000000000000000000000000000000000000000000000000000002815260040180828152602001915050602060405180830381600087803b1515613db557600080fd5b6102c65a03f11515613dc657600080fd5b505050604051805190506000809054906101000a900473ffffffffffffffffffffffffffffffffffffffff1673ffffffffffffffffffffffffffffffffffffffff1663adac525f85856000604051602001526040518363ffffffff167c01000000000000000000000000000000000000000000000000000000000281526004018083815260200182815260200192505050602060405180830381600087803b1515613e7057600080fd5b6102c65a03f11515613e8157600080fd5b50505060405180519050115b5b15614011576000809054906101000a900473ffffffffffffffffffffffffffffffffffffffff1673ffffffffffffffffffffffffffffffffffffffff166325a9f8e7848460026040518463ffffffff167c010000000000000000000000000000000000000000000000000000000002815260040180848152602001838152602001826006811115613f1b57fe5b60ff1681526020019350505050600060405180830381600087803b1515613f4157600080fd5b6102c65a03f11515613f5257600080fd5b5050506000809054906101000a900473ffffffffffffffffffffffffffffffffffffffff1673ffffffffffffffffffffffffffffffffffffffff166390abb39f8484426040518463ffffffff167c0100000000000000000000000000000000000000000000000000000000028152600401808481526020018381526020018281526020019350505050600060405180830381600087803b1515613ff457600080fd5b6102c65a03f1151561400557600080fd5b50505060019050614016565b600090505b92915050565b60008060009054906101000a900473ffffffffffffffffffffffffffffffffffffffff1673ffffffffffffffffffffffffffffffffffffffff1663a7e88553336000604051602001526040518263ffffffff167c0100000000000000000000000000000000000000000000000000000000028152600401808273ffffffffffffffffffffffffffffffffffffffff1673ffffffffffffffffffffffffffffffffffffffff168152602001915050602060405180830381600087803b15156140e257600080fd5b6102c65a03f115156140f357600080fd5b5050506040518051905080156141b857506000809054906101000a900473ffffffffffffffffffffffffffffffffffffffff1673ffffffffffffffffffffffffffffffffffffffff1663a5ba100f856000604051602001526040518263ffffffff167c010000000000000000000000000000000000000000000000000000000002815260040180828152602001915050602060405180830381600087803b151561419c57600080fd5b6102c65a03f115156141ad57600080fd5b505050604051805190505b15614645576000809054906101000a900473ffffffffffffffffffffffffffffffffffffffff1673ffffffffffffffffffffffffffffffffffffffff166335865017856000604051602001526040518263ffffffff167c010000000000000000000000000000000000000000000000000000000002815260040180828152602001915050602060405180830381600087803b151561425557600080fd5b6102c65a03f1151561426657600080fd5b5050506040518051905083141515614481576000809054906101000a900473ffffffffffffffffffffffffffffffffffffffff1673ffffffffffffffffffffffffffffffffffffffff16632fa661586000809054906101000a900473ffffffffffffffffffffffffffffffffffffffff1673ffffffffffffffffffffffffffffffffffffffff166335865017876000604051602001526040518263ffffffff167c010000000000000000000000000000000000000000000000000000000002815260040180828152602001915050602060405180830381600087803b151561434d57600080fd5b6102c65a03f1151561435e57600080fd5b50505060405180519050866040518363ffffffff167c01000000000000000000000000000000000000000000000000000000000281526004018083815260200182815260200192505050600060405180830381600087803b15156143c157600080fd5b6102c65a03f115156143d257600080fd5b5050506000809054906101000a900473ffffffffffffffffffffffffffffffffffffffff1673ffffffffffffffffffffffffffffffffffffffff16639d1c840b84866040518363ffffffff167c01000000000000000000000000000000000000000000000000000000000281526004018083815260200182815260200192505050600060405180830381600087803b151561446c57600080fd5b6102c65a03f1151561447d57600080fd5b5050505b6000809054906101000a900473ffffffffffffffffffffffffffffffffffffffff1673ffffffffffffffffffffffffffffffffffffffff1663704979c585846040518363ffffffff167c01000000000000000000000000000000000000000000000000000000000281526004018083815260200180602001828103825283818151815260200191508051906020019080838360005b83811015614531578082015181840152602081019050614516565b50505050905090810190601f16801561455e5780820380516001836020036101000a031916815260200191505b509350505050600060405180830381600087803b151561457d57600080fd5b6102c65a03f1151561458e57600080fd5b5050506000809054906101000a900473ffffffffffffffffffffffffffffffffffffffff1673ffffffffffffffffffffffffffffffffffffffff1663bd210d9485856040518363ffffffff167c01000000000000000000000000000000000000000000000000000000000281526004018083815260200182815260200192505050600060405180830381600087803b151561462857600080fd5b6102c65a03f1151561463957600080fd5b5050506001905061464a565b600090505b9392505050565b60008060009054906101000a900473ffffffffffffffffffffffffffffffffffffffff1673ffffffffffffffffffffffffffffffffffffffff16631a8cb11885336000604051602001526040518363ffffffff167c0100000000000000000000000000000000000000000000000000000000028152600401808381526020018273ffffffffffffffffffffffffffffffffffffffff1673ffffffffffffffffffffffffffffffffffffffff16815260200192505050602060405180830381600087803b151561471f57600080fd5b6102c65a03f1151561473057600080fd5b50505060405180519050801561481657506003600681111561474e57fe5b6000809054906101000a900473ffffffffffffffffffffffffffffffffffffffff1673ffffffffffffffffffffffffffffffffffffffff1663e536a4a386866000604051602001526040518363ffffffff167c01000000000000000000000000000000000000000000000000000000000281526004018083815260200182815260200192505050602060405180830381600087803b15156147ee57600080fd5b6102c65a03f115156147ff57600080fd5b50505060405180519050600681111561481457fe5b145b80156148235750603c8210155b156149b3576000809054906101000a900473ffffffffffffffffffffffffffffffffffffffff1673ffffffffffffffffffffffffffffffffffffffff1663a039683a858560006103e887026040518563ffffffff167c010000000000000000000000000000000000000000000000000000000002815260040180858152602001848152602001838152602001828152602001945050505050600060405180830381600087803b15156148d457600080fd5b6102c65a03f115156148e557600080fd5b5050506000809054906101000a900473ffffffffffffffffffffffffffffffffffffffff1673ffffffffffffffffffffffffffffffffffffffff166325a9f8e7858560046040518463ffffffff167c01000000000000000000000000000000000000000000000000000000000281526004018084815260200183815260200182600681111561497057fe5b60ff1681526020019350505050600060405180830381600087803b151561499657600080fd5b6102c65a03f115156149a757600080fd5b505050600190506149b8565b600090505b9392505050565b60008060008060008060009054906101000a900473ffffffffffffffffffffffffffffffffffffffff1673ffffffffffffffffffffffffffffffffffffffff1663a7e88553336000604051602001526040518263ffffffff167c0100000000000000000000000000000000000000000000000000000000028152600401808273ffffffffffffffffffffffffffffffffffffffff1673ffffffffffffffffffffffffffffffffffffffff168152602001915050602060405180830381600087803b1515614a8b57600080fd5b6102c65a03f11515614a9c57600080fd5b505050604051805190508015614b82575060046006811115614aba57fe5b6000809054906101000a900473ffffffffffffffffffffffffffffffffffffffff1673ffffffffffffffffffffffffffffffffffffffff1663e536a4a389896000604051602001526040518363ffffffff167c01000000000000000000000000000000000000000000000000000000000281526004018083815260200182815260200192505050602060405180830381600087803b1515614b5a57600080fd5b6102c65a03f11515614b6b57600080fd5b505050604051805190506006811115614b8057fe5b145b156151c0576000935060009250600090505b6000809054906101000a900473ffffffffffffffffffffffffffffffffffffffff1673ffffffffffffffffffffffffffffffffffffffff1663f7a39213876000604051602001526040518263ffffffff167c010000000000000000000000000000000000000000000000000000000002815260040180828152602001915050602060405180830381600087803b1515614c2c57600080fd5b6102c65a03f11515614c3d57600080fd5b5050506040518051905081108015614d0e57506000809054906101000a900473ffffffffffffffffffffffffffffffffffffffff1673ffffffffffffffffffffffffffffffffffffffff1663d2b6085188886000604051602001526040518363ffffffff167c01000000000000000000000000000000000000000000000000000000000281526004018083815260200182815260200192505050602060405180830381600087803b1515614cf057600080fd5b6102c65a03f11515614d0157600080fd5b5050506040518051905081105b15614f62576000809054906101000a900473ffffffffffffffffffffffffffffffffffffffff1673ffffffffffffffffffffffffffffffffffffffff1663a2ac017b87836000604051602001526040518363ffffffff167c01000000000000000000000000000000000000000000000000000000000281526004018083815260200182815260200192505050602060405180830381600087803b1515614db357600080fd5b6102c65a03f11515614dc457600080fd5b50505060405180519050840193506000809054906101000a900473ffffffffffffffffffffffffffffffffffffffff1673ffffffffffffffffffffffffffffffffffffffff1663b80a654c8888846000604051602001526040518463ffffffff167c0100000000000000000000000000000000000000000000000000000000028152600401808481526020018381526020018281526020019350505050602060405180830381600087803b1515614e7a57600080fd5b6102c65a03f11515614e8b57600080fd5b505050604051805190506000809054906101000a900473ffffffffffffffffffffffffffffffffffffffff1673ffffffffffffffffffffffffffffffffffffffff1663a2ac017b88846000604051602001526040518363ffffffff167c01000000000000000000000000000000000000000000000000000000000281526004018083815260200182815260200192505050602060405180830381600087803b1515614f3557600080fd5b6102c65a03f11515614f4657600080fd5b5050506040518051905002830192508080600101915050614b94565b8383811515614f6d57fe5b0491506000809054906101000a900473ffffffffffffffffffffffffffffffffffffffff1673ffffffffffffffffffffffffffffffffffffffff166397473bee8888856040518463ffffffff167c0100000000000000000000000000000000000000000000000000000000028152600401808481526020018381526020018281526020019350505050600060405180830381600087803b151561500f57600080fd5b6102c65a03f1151561502057600080fd5b50505061ea608210156150f4576000809054906101000a900473ffffffffffffffffffffffffffffffffffffffff1673ffffffffffffffffffffffffffffffffffffffff166325a9f8e7888860056040518463ffffffff167c0100000000000000000000000000000000000000000000000000000000028152600401808481526020018381526020018260068111156150b557fe5b60ff1681526020019350505050600060405180830381600087803b15156150db57600080fd5b6102c65a03f115156150ec57600080fd5b5050506151b7565b6000809054906101000a900473ffffffffffffffffffffffffffffffffffffffff1673ffffffffffffffffffffffffffffffffffffffff166325a9f8e7888860066040518463ffffffff167c01000000000000000000000000000000000000000000000000000000000281526004018084815260200183815260200182600681111561517c57fe5b60ff1681526020019350505050600060405180830381600087803b15156151a257600080fd5b6102c65a03f115156151b357600080fd5b5050505b600194506151c5565b600094505b5050505092915050565b60008060009054906101000a900473ffffffffffffffffffffffffffffffffffffffff1673ffffffffffffffffffffffffffffffffffffffff1663a7e88553336000604051602001526040518263ffffffff167c0100000000000000000000000000000000000000000000000000000000028152600401808273ffffffffffffffffffffffffffffffffffffffff1673ffffffffffffffffffffffffffffffffffffffff168152602001915050602060405180830381600087803b151561529557600080fd5b6102c65a03f115156152a657600080fd5b50505060405180519050801561536c57506000809054906101000a900473ffffffffffffffffffffffffffffffffffffffff1673ffffffffffffffffffffffffffffffffffffffff16632e945ee4886000604051602001526040518263ffffffff167c010000000000000000000000000000000000000000000000000000000002815260040180828152602001915050602060405180830381600087803b151561534f57600080fd5b6102c65a03f1151561536057600080fd5b50505060405180519050155b1561585f576000809054906101000a900473ffffffffffffffffffffffffffffffffffffffff1673ffffffffffffffffffffffffffffffffffffffff1663c4663c08886040518263ffffffff167c010000000000000000000000000000000000000000000000000000000002815260040180828152602001915050600060405180830381600087803b151561540057600080fd5b6102c65a03f1151561541157600080fd5b5050506000809054906101000a900473ffffffffffffffffffffffffffffffffffffffff1673ffffffffffffffffffffffffffffffffffffffff16639e12237788886040518363ffffffff167c01000000000000000000000000000000000000000000000000000000000281526004018083815260200180602001828103825283818151815260200191508051906020019080838360005b838110156154c45780820151818401526020810190506154a9565b50505050905090810190601f1680156154f15780820380516001836020036101000a031916815260200191505b509350505050600060405180830381600087803b151561551057600080fd5b6102c65a03f1151561552157600080fd5b5050506000809054906101000a900473ffffffffffffffffffffffffffffffffffffffff1673ffffffffffffffffffffffffffffffffffffffff166313cadff788876040518363ffffffff167c01000000000000000000000000000000000000000000000000000000000281526004018083815260200182815260200192505050600060405180830381600087803b15156155bb57600080fd5b6102c65a03f115156155cc57600080fd5b5050506000809054906101000a900473ffffffffffffffffffffffffffffffffffffffff1673ffffffffffffffffffffffffffffffffffffffff1663e512387a88866040518363ffffffff167c01000000000000000000000000000000000000000000000000000000000281526004018083815260200180602001828103825283818151815260200191508051906020019060200280838360005b83811015615682578082015181840152602081019050615667565b505050509050019350505050600060405180830381600087803b15156156a757600080fd5b6102c65a03f115156156b857600080fd5b5050506000809054906101000a900473ffffffffffffffffffffffffffffffffffffffff1673ffffffffffffffffffffffffffffffffffffffff166373e7d58e88856040518363ffffffff167c01000000000000000000000000000000000000000000000000000000000281526004018083815260200180602001828103825283818151815260200191508051906020019060200280838360005b8381101561576e578082015181840152602081019050615753565b505050509050019350505050600060405180830381600087803b151561579357600080fd5b6102c65a03f115156157a457600080fd5b5050506000809054906101000a900473ffffffffffffffffffffffffffffffffffffffff1673ffffffffffffffffffffffffffffffffffffffff16634602bb1388846040518363ffffffff167c0100000000000000000000000000000000000000000000000000000000028152600401808381526020018215151515815260200192505050600060405180830381600087803b151561584257600080fd5b6102c65a03f1151561585357600080fd5b50505060019050615864565b600090505b9695505050505050565b60008060009054906101000a900473ffffffffffffffffffffffffffffffffffffffff1673ffffffffffffffffffffffffffffffffffffffff16631a8cb11884336000604051602001526040518363ffffffff167c0100000000000000000000000000000000000000000000000000000000028152600401808381526020018273ffffffffffffffffffffffffffffffffffffffff1673ffffffffffffffffffffffffffffffffffffffff16815260200192505050602060405180830381600087803b151561593c57600080fd5b6102c65a03f1151561594d57600080fd5b505050604051805190508015615a3357506001600681111561596b57fe5b6000809054906101000a900473ffffffffffffffffffffffffffffffffffffffff1673ffffffffffffffffffffffffffffffffffffffff1663e536a4a385856000604051602001526040518363ffffffff167c01000000000000000000000000000000000000000000000000000000000281526004018083815260200182815260200192505050602060405180830381600087803b1515615a0b57600080fd5b6102c65a03f11515615a1c57600080fd5b505050604051805190506006811115615a3157fe5b145b15615d0d576000809054906101000a900473ffffffffffffffffffffffffffffffffffffffff1673ffffffffffffffffffffffffffffffffffffffff16634de5807c848460006040518463ffffffff167c0100000000000000000000000000000000000000000000000000000000028152600401808481526020018381526020018281526020019350505050600060405180830381600087803b1515615ad857600080fd5b6102c65a03f11515615ae957600080fd5b5050506000809054906101000a900473ffffffffffffffffffffffffffffffffffffffff1673ffffffffffffffffffffffffffffffffffffffff166325a9f8e7848460006040518463ffffffff167c010000000000000000000000000000000000000000000000000000000002815260040180848152602001838152602001826006811115615b7457fe5b60ff1681526020019350505050600060405180830381600087803b1515615b9a57600080fd5b6102c65a03f11515615bab57600080fd5b5050506000809054906101000a900473ffffffffffffffffffffffffffffffffffffffff1673ffffffffffffffffffffffffffffffffffffffff166326d6ef0684846040518363ffffffff167c01000000000000000000000000000000000000000000000000000000000281526004018083815260200182815260200192505050600060405180830381600087803b1515615c4557600080fd5b6102c65a03f11515615c5657600080fd5b5050506000809054906101000a900473ffffffffffffffffffffffffffffffffffffffff1673ffffffffffffffffffffffffffffffffffffffff16638fb306e384846040518363ffffffff167c01000000000000000000000000000000000000000000000000000000000281526004018083815260200182815260200192505050600060405180830381600087803b1515615cf057600080fd5b6102c65a03f11515615d0157600080fd5b50505060019050615d12565b600090505b929150505600a165627a7a72305820572d042f573f83fc5007f66bb1daa3e9831b9bfc0564d03bfdb54ba0b7f92b990029",
  "source": "pragma solidity ^0.4.18;\r\n\r\nimport './StudyData.sol';\r\n\r\ncontract Study {\r\n    StudyData sd = StudyData(0x9d1c942956fb29eeb19861f40ddd02baba34db9e);//0x64bcdE263fb27C29368fAD031A0Ff86482C73B17\r\n\r\n    function Study(uint _ManagerID) {\r\n        sd.dataManagerInsert(_ManagerID, msg.sender);\r\n    }\r\n\r\n\r\n\r\n    function managerInsert(uint _ManagerID, address _ManagerAddress) returns (bool) {\r\n        if(sd.managerAuthority(msg.sender) && sd.managerAvailable(_ManagerID, _ManagerAddress))\r\n            return sd.dataManagerInsert(_ManagerID, _ManagerAddress);\r\n        else return false;\r\n    }\r\n\r\n    function studentInsert(uint _StudentID, string _StudentName, uint _StudentClass, string _LoginKey, string _UnlockKey, address _StudentAddress) returns(bool) {\r\n        if(sd.managerAuthority(msg.sender) && !sd.studentIDExist(_StudentID) && !sd.studentAddrExist(_StudentAddress)) {\r\n            sd.setStudentID (_StudentID);\r\n            sd.setStudentName(_StudentID, _StudentName);\r\n            sd.setStudentClass(_StudentID, _StudentClass);\r\n            sd.setStudentLoginKey(_StudentID, _LoginKey);\r\n            sd.setStudentUnLockKey (_StudentID, _UnlockKey);\r\n            sd.setStudentAddr(_StudentID, _StudentAddress);\r\n            sd.classPushStudentID(_StudentClass, _StudentID);\r\n            return true;\r\n        }\r\n        else return false;\r\n    }\r\n\r\n    function studentInfoChange(uint _StudentID, uint _StudentClass, string _StudentName) returns (bool) {\r\n        if(sd.managerAuthority(msg.sender) && sd.studentIDExist(_StudentID)) {\r\n            if(_StudentClass != sd.getStudentClass(_StudentID)) {\r\n                sd.classClearStudentID(sd.getStudentClass(_StudentID), _StudentID);\r\n                sd.classPushStudentID(_StudentClass, _StudentID);\r\n            }\r\n            sd.setStudentName(_StudentID, _StudentName);\r\n            sd.setStudentClass(_StudentID, _StudentClass);\r\n            return true;\r\n        }\r\n        else return false;\r\n    }\r\n\r\n    function studentLoginKeyChange(uint _StudentID, string _LoginKey) returns (bool) {\r\n        if((sd.managerAuthority(msg.sender) || sd.studentAuthority(_StudentID, msg.sender)) && sd.studentIDExist(_StudentID)) {\r\n            sd.setStudentLoginKey(_StudentID, _LoginKey);\r\n            return true;\r\n        }\r\n        else return false;\r\n    }\r\n\r\n    function studentAddressChange(uint _StudentID, address _StudentAddress, string _UnlockKey) returns (bool) {\r\n        if(sd.managerAuthority(msg.sender) && sd.studentIDExist(_StudentID) && !sd.studentAddrExist(_StudentAddress)) {\r\n            sd.setStudentUnLockKey(_StudentID, _UnlockKey);\r\n            sd.setStudentAddr(_StudentID, _StudentAddress);\r\n        }\r\n        else return false;\r\n    }\r\n\r\n    //    function classCourseSearch(uint[] _Class, uint _CourseID) returns (uint[], uint[], string, string, uint[], uint[], LearningProgress[]) {\r\n    //        string memory _ccsStudentsName;\r\n    //        string memory _ccsCourseName = courses[_CourseID].CourseName;\r\n    //        for (uint c = 0; c < _Class.length; c++) {\r\n    //            uint[] a = class_stu[_Class[c]];\r\n    //            for (uint s = 0; s < a.length; s++) {\r\n    //                string memory sn = students[a[s]].StudentName;\r\n    //                if (s == 0) {\r\n    //                    _ccsStudentsName = StudentFunction.strConcat(sn, \"\", \"\");\r\n    //                }\r\n    //                else {\r\n    //                    _ccsStudentsName = StudentFunction.strConcat(_ccsStudentsName, \", \", sn);\r\n    //                }\r\n    //                Stu_Courses b = students[a[s]].stu_courses[_CourseID];\r\n    //                ccsClass.push(_Class[c]);\r\n    //                ccsStudentID.push(a[s]);\r\n    //                ccsStudyTime.push(b.PreviewTime);\r\n    //                ccsCourseGrade.push(b.CourseGrade);\r\n    //                ccsLp.push(b.Lp);\r\n    //            }\r\n    //        }\r\n    //        return (ccsClass, ccsStudentID, _ccsStudentsName, _ccsCourseName, ccsStudyTime, ccsCourseGrade, ccsLp);\r\n    //    }\r\n\r\n    function courseInsert(uint _CourseID, string _CourseName, uint _RequiredTime,uint[] _Advanced, uint[] _Percentage, bool _Compulsory) returns (bool) {\r\n        if(sd.managerAuthority(msg.sender) && (!sd.courseIDExist(_CourseID))) {\r\n            sd.setCourseID(_CourseID);\r\n            sd.setCourseName(_CourseID, _CourseName);\r\n            sd.setCourseRequiredTime(_CourseID, _RequiredTime);\r\n            sd.setCourseAdvanced(_CourseID, _Advanced);\r\n            sd.setCoursePercentage(_CourseID, _Percentage);\r\n            sd.setCourseCompulsory(_CourseID, _Compulsory);\r\n            return true;\r\n        }\r\n        else return false;\r\n    }\r\n\r\n    function courseInfoChange(uint _CourseID, string _CourseName, uint _RequiredTime,uint[] _Advanced, uint[] _Percentage, bool _Compulsory) returns (bool) {\r\n        if (sd.managerAuthority(msg.sender) && sd.courseIDExist(_CourseID)) {\r\n            sd.setCourseID(_CourseID);\r\n            sd.setCourseName(_CourseID, _CourseName);\r\n            sd.setCourseRequiredTime(_CourseID, _RequiredTime);\r\n            sd.setCourseAdvanced(_CourseID, _Advanced);\r\n            sd.setCoursePercentage(_CourseID, _Percentage);\r\n            sd.setCourseCompulsory(_CourseID, _Compulsory);\r\n            return true;\r\n        }\r\n        else return false;\r\n    }\r\n\r\n    function chooseCourse(uint _StudentID, uint _CourseID) returns (bool) {\r\n        if(sd.studentAuthority(_StudentID, msg.sender) && sd.studentIDExist(_StudentID) && sd.courseIDExist(_CourseID) && sd.courseAdvanced(_StudentID, _CourseID) && sd.getStuCourseLearningProgress(_StudentID, _CourseID) == StudyData.LearningProgress.NotStart) {\r\n            sd.setStuCourseID(_StudentID, _CourseID, _CourseID);\r\n            sd.stuCourseIDPush(_StudentID, _CourseID);\r\n            sd.courseStuIDPush(_StudentID, _CourseID);\r\n            sd.setStuCourseLearningProgress(_StudentID, _CourseID, StudyData.LearningProgress.Start);\r\n            return true;\r\n        }\r\n\r\n        else return false;\r\n    }\r\n\r\n    function withdrew(uint _StudentID, uint _CourseID) returns (bool) {\r\n        if(sd.studentAuthority(_StudentID, msg.sender) && sd.getStuCourseLearningProgress(_StudentID, _CourseID) == StudyData.LearningProgress.Start) {\r\n            sd.setStuCourseID(_StudentID, _CourseID, 0);\r\n            sd.setStuCourseLearningProgress(_StudentID, _CourseID, StudyData.LearningProgress.NotStart);\r\n            sd.stuCourseIDClear(_StudentID, _CourseID);\r\n            sd.courseStuIDClear(_StudentID, _CourseID);\r\n            return true;\r\n        }\r\n        else return false;\r\n    }\r\n\r\n    function previewStart(uint _StudentID, uint _CourseID) returns (bool) {\r\n        if(sd.studentAuthority(_StudentID, msg.sender) && sd.getCourseRequiredTime(_CourseID) > 0 && (sd.getStuCourseLearningProgress(_StudentID, _CourseID) == StudyData.LearningProgress.Start || sd.getStuCoursePreviewTime(_StudentID, _CourseID) > sd.getCourseRequiredTime(_CourseID))) {\r\n            sd.setStuCourseLearningProgress(_StudentID, _CourseID, StudyData.LearningProgress.PreviewStart);\r\n            sd.setStuCourseStartTime(_StudentID, _CourseID, now);\r\n            return true;\r\n        }\r\n        else return false;\r\n    }\r\n\r\n    function previewEnd(uint _StudentID, uint _CourseID) returns (bool) {\r\n        if(sd.studentAuthority(_StudentID, msg.sender) && sd.getStuCourseLearningProgress(_StudentID, _CourseID) == StudyData.LearningProgress.PreviewStart) {\r\n            uint _StudyTime;\r\n            _StudyTime = now - sd.getStuCourseStartTime(_StudentID, _CourseID) + sd.getStuCoursePreviewTime(_StudentID, _CourseID);\r\n            sd.setStuCourseStartTime(_StudentID, _CourseID, 0);\r\n            if ((_StudyTime) < sd.getCourseRequiredTime(_CourseID)) {\r\n                sd.setStuCoursePreviewTime(_StudentID, _CourseID, _StudyTime);\r\n                sd.setStuCourseLearningProgress(_StudentID, _CourseID, StudyData.LearningProgress.Start);\r\n                return false;\r\n            }\r\n            else {\r\n                sd.setStuCourseLearningProgress(_StudentID, _CourseID, StudyData.LearningProgress.PreviewEnd);\r\n                sd.setStuCoursePreviewTime(_StudentID, _CourseID, _StudyTime);\r\n                return true;\r\n            }\r\n        }\r\n        else return false;\r\n    }\r\n\r\n    function previewTest(uint _StudentID, uint _CourseID, uint _TestGrade) returns (bool) {\r\n        if(sd.studentAuthority(_StudentID, msg.sender) && sd.getStuCourseLearningProgress(_StudentID, _CourseID) == StudyData.LearningProgress.PreviewEnd && _TestGrade >= 60) {\r\n            sd.setStuCourseTestGrade(_StudentID, _CourseID, 0, _TestGrade * 1000);\r\n            sd.setStuCourseLearningProgress(_StudentID, _CourseID, StudyData.LearningProgress.Test);\r\n            return true;\r\n        }\r\n        else return false;\r\n    }\r\n\r\n    function testGradeSave(uint _StudentID, uint _CourseID, uint _TestTimes, uint _TestGrade) returns (bool) {\r\n        if(sd.managerAuthority(msg.sender)) {\r\n            if (sd.getCourseRequiredTime(_CourseID) > 0) {\r\n                if (sd.getStuCourseLearningProgress(_StudentID, _CourseID) != StudyData.LearningProgress.Test) {\r\n                    return false;\r\n                }\r\n                else {\r\n                    if (sd.getStuCourseTestGradeLength(_StudentID, _CourseID) < _TestTimes+1) {\r\n                        sd.setStuCourseTestGradeLength(_StudentID, _CourseID, _TestTimes+1);\r\n                    }\r\n                    sd.setStuCourseTestGrade(_StudentID, _CourseID, _TestTimes, _TestGrade * 1000);\r\n                    return true;\r\n                }\r\n            }\r\n            else {\r\n                if (sd.getStuCourseLearningProgress(_StudentID, _CourseID) != StudyData.LearningProgress.Start && sd.getStuCourseLearningProgress(_StudentID, _CourseID) != StudyData.LearningProgress.Test) {\r\n                    return false;\r\n                }\r\n                else {\r\n                    if (sd.getStuCourseTestGradeLength(_StudentID, _CourseID) < _TestTimes) {\r\n                        sd.setStuCourseTestGradeLength(_StudentID, _CourseID, _TestTimes);\r\n                    }\r\n                    sd.setStuCourseLearningProgress(_StudentID, _CourseID, StudyData.LearningProgress.Test);\r\n                    sd.setStuCourseTestGrade(_StudentID, _CourseID, _TestTimes-1, _TestGrade * 1000);\r\n                    return true;\r\n                }\r\n            }\r\n        }\r\n        else return false;\r\n    }\r\n\r\n    function learningEnd(uint _StudentID, uint _CourseID) returns (bool) {\r\n        if(sd.managerAuthority(msg.sender) && sd.getStuCourseLearningProgress(_StudentID, _CourseID) == StudyData.LearningProgress.Test) {\r\n            uint percentageall = 0;\r\n            uint gradeall = 0;\r\n            uint averagescore;\r\n            for (uint p = 0; p < sd.getCoursePercentageLength(_CourseID) && p < sd.getStuCourseTestGradeLength(_StudentID, _CourseID); p++) {\r\n                percentageall += sd.getCoursePercentageIndex(_CourseID, p);\r\n                gradeall += sd.getCoursePercentageIndex(_CourseID, p) * sd.getStuCourseTestGradeIndex(_StudentID, _CourseID, p);\r\n            }\r\n            averagescore = gradeall / percentageall;\r\n            sd.setStuCourseGrade(_StudentID, _CourseID, averagescore);\r\n            if (averagescore < 60 * 1000)\r\n                sd.setStuCourseLearningProgress(_StudentID, _CourseID, StudyData.LearningProgress.NotPass);\r\n            else\r\n                sd.setStuCourseLearningProgress(_StudentID, _CourseID, StudyData.LearningProgress.Pass);\r\n            return true;\r\n        }\r\n        else return false;\r\n    }\r\n\r\n}\r\n",
  "sourcePath": "E:\\workspace\\project-react-cai\\contracts\\Study.sol",
  "compiler": {
    "name": "solc",
    "version": "0.4.18+commit.9cf6e910.Emscripten.clang"
  },
  "schemaVersion": "1.0.1",
  "updatedAt": "2017-11-15T02:28:54.005Z"
}