{
  "contractName": "StudyData",
  "abi": [
    {
      "constant": false,
      "inputs": [
        {
          "name": "_StudentID",
          "type": "uint256"
        },
        {
          "name": "_StudentAddr",
          "type": "address"
        }
      ],
      "name": "setStudentAddr",
      "outputs": [],
      "payable": false,
      "stateMutability": "nonpayable",
      "type": "function"
    },
    {
      "constant": false,
      "inputs": [
        {
          "name": "_CourseID",
          "type": "uint256"
        }
      ],
      "name": "getCourseRequiredTime",
      "outputs": [
        {
          "name": "",
          "type": "uint256"
        }
      ],
      "payable": false,
      "stateMutability": "nonpayable",
      "type": "function"
    },
    {
      "constant": false,
      "inputs": [
        {
          "name": "_CourseID",
          "type": "uint256"
        },
        {
          "name": "_RequiredTime",
          "type": "uint256"
        }
      ],
      "name": "setCourseRequiredTime",
      "outputs": [],
      "payable": false,
      "stateMutability": "nonpayable",
      "type": "function"
    },
    {
      "constant": false,
      "inputs": [
        {
          "name": "_StudentID",
          "type": "uint256"
        }
      ],
      "name": "studentCoursesList",
      "outputs": [
        {
          "name": "",
          "type": "uint256[]"
        }
      ],
      "payable": false,
      "stateMutability": "nonpayable",
      "type": "function"
    },
    {
      "constant": false,
      "inputs": [
        {
          "name": "_StudentID",
          "type": "uint256"
        },
        {
          "name": "_UnlockKey",
          "type": "string"
        }
      ],
      "name": "setStudentUnLockKey",
      "outputs": [],
      "payable": false,
      "stateMutability": "nonpayable",
      "type": "function"
    },
    {
      "constant": false,
      "inputs": [
        {
          "name": "_StudentID",
          "type": "uint256"
        },
        {
          "name": "_StudentAddr",
          "type": "address"
        }
      ],
      "name": "studentAuthority",
      "outputs": [
        {
          "name": "",
          "type": "bool"
        }
      ],
      "payable": false,
      "stateMutability": "nonpayable",
      "type": "function"
    },
    {
      "constant": false,
      "inputs": [
        {
          "name": "_CourseID",
          "type": "uint256"
        }
      ],
      "name": "courseStudentList",
      "outputs": [
        {
          "name": "",
          "type": "uint256[]"
        }
      ],
      "payable": false,
      "stateMutability": "nonpayable",
      "type": "function"
    },
    {
      "constant": false,
      "inputs": [
        {
          "name": "_StudentID",
          "type": "uint256"
        },
        {
          "name": "_CourseID",
          "type": "uint256"
        },
        {
          "name": "_Lp",
          "type": "uint8"
        }
      ],
      "name": "setStuCourseLearningProgress",
      "outputs": [],
      "payable": false,
      "stateMutability": "nonpayable",
      "type": "function"
    },
    {
      "constant": false,
      "inputs": [
        {
          "name": "_StudentID",
          "type": "uint256"
        },
        {
          "name": "_CourseID",
          "type": "uint256"
        }
      ],
      "name": "stuCourseIDClear",
      "outputs": [],
      "payable": false,
      "stateMutability": "nonpayable",
      "type": "function"
    },
    {
      "constant": false,
      "inputs": [
        {
          "name": "_CourseID",
          "type": "uint256"
        }
      ],
      "name": "courseIDExist",
      "outputs": [
        {
          "name": "",
          "type": "bool"
        }
      ],
      "payable": false,
      "stateMutability": "nonpayable",
      "type": "function"
    },
    {
      "constant": false,
      "inputs": [
        {
          "name": "_StudentClass",
          "type": "uint256"
        },
        {
          "name": "_StudentID",
          "type": "uint256"
        }
      ],
      "name": "classClearStudentID",
      "outputs": [],
      "payable": false,
      "stateMutability": "nonpayable",
      "type": "function"
    },
    {
      "constant": false,
      "inputs": [
        {
          "name": "_StudentID",
          "type": "uint256"
        }
      ],
      "name": "getStudentClass",
      "outputs": [
        {
          "name": "",
          "type": "uint256"
        }
      ],
      "payable": false,
      "stateMutability": "nonpayable",
      "type": "function"
    },
    {
      "constant": false,
      "inputs": [
        {
          "name": "_CourseID",
          "type": "uint256"
        },
        {
          "name": "_Compulsory",
          "type": "bool"
        }
      ],
      "name": "setCourseCompulsory",
      "outputs": [],
      "payable": false,
      "stateMutability": "nonpayable",
      "type": "function"
    },
    {
      "constant": false,
      "inputs": [
        {
          "name": "_StudentID",
          "type": "uint256"
        },
        {
          "name": "_CourseID",
          "type": "uint256"
        },
        {
          "name": "_C",
          "type": "uint256"
        }
      ],
      "name": "setStuCourseID",
      "outputs": [],
      "payable": false,
      "stateMutability": "nonpayable",
      "type": "function"
    },
    {
      "constant": false,
      "inputs": [
        {
          "name": "_StudentsIDList",
          "type": "uint256[]"
        },
        {
          "name": "_CourseID",
          "type": "uint256"
        }
      ],
      "name": "courseStudentsSearch",
      "outputs": [
        {
          "name": "",
          "type": "uint256[]"
        },
        {
          "name": "",
          "type": "uint256[]"
        },
        {
          "name": "",
          "type": "uint256[]"
        },
        {
          "name": "",
          "type": "uint8[]"
        }
      ],
      "payable": false,
      "stateMutability": "nonpayable",
      "type": "function"
    },
    {
      "constant": false,
      "inputs": [
        {
          "name": "_StudentID",
          "type": "uint256"
        }
      ],
      "name": "setStudentID",
      "outputs": [],
      "payable": false,
      "stateMutability": "nonpayable",
      "type": "function"
    },
    {
      "constant": false,
      "inputs": [
        {
          "name": "_ManagerID",
          "type": "uint256"
        },
        {
          "name": "_ManagerAddr",
          "type": "address"
        }
      ],
      "name": "managerAvailable",
      "outputs": [
        {
          "name": "",
          "type": "bool"
        }
      ],
      "payable": false,
      "stateMutability": "nonpayable",
      "type": "function"
    },
    {
      "constant": false,
      "inputs": [
        {
          "name": "_StudentAddr",
          "type": "address"
        }
      ],
      "name": "studentAddrExist",
      "outputs": [
        {
          "name": "",
          "type": "bool"
        }
      ],
      "payable": false,
      "stateMutability": "nonpayable",
      "type": "function"
    },
    {
      "constant": false,
      "inputs": [
        {
          "name": "_StudentID",
          "type": "uint256"
        },
        {
          "name": "_StudentName",
          "type": "string"
        }
      ],
      "name": "setStudentName",
      "outputs": [],
      "payable": false,
      "stateMutability": "nonpayable",
      "type": "function"
    },
    {
      "constant": false,
      "inputs": [
        {
          "name": "_CourseID",
          "type": "uint256"
        },
        {
          "name": "_Percentage",
          "type": "uint256[]"
        }
      ],
      "name": "setCoursePercentage",
      "outputs": [],
      "payable": false,
      "stateMutability": "nonpayable",
      "type": "function"
    },
    {
      "constant": false,
      "inputs": [
        {
          "name": "_StudentsIDList",
          "type": "uint256[]"
        }
      ],
      "name": "studentsInfo",
      "outputs": [
        {
          "name": "",
          "type": "string"
        },
        {
          "name": "",
          "type": "uint256[]"
        }
      ],
      "payable": false,
      "stateMutability": "nonpayable",
      "type": "function"
    },
    {
      "constant": false,
      "inputs": [
        {
          "name": "_StudentID",
          "type": "uint256"
        },
        {
          "name": "_CoursesIDList",
          "type": "uint256[]"
        }
      ],
      "name": "studentCoursesSearch",
      "outputs": [
        {
          "name": "",
          "type": "uint256[]"
        },
        {
          "name": "",
          "type": "uint256[]"
        },
        {
          "name": "",
          "type": "uint256[]"
        },
        {
          "name": "",
          "type": "uint8[]"
        }
      ],
      "payable": false,
      "stateMutability": "nonpayable",
      "type": "function"
    },
    {
      "constant": false,
      "inputs": [
        {
          "name": "_StudentID",
          "type": "uint256"
        },
        {
          "name": "_CoursesIDList",
          "type": "uint256[]"
        }
      ],
      "name": "CoursesInfo",
      "outputs": [
        {
          "name": "",
          "type": "string"
        },
        {
          "name": "",
          "type": "uint256[]"
        },
        {
          "name": "",
          "type": "uint256[]"
        },
        {
          "name": "",
          "type": "uint256[]"
        },
        {
          "name": "",
          "type": "bool[]"
        }
      ],
      "payable": false,
      "stateMutability": "nonpayable",
      "type": "function"
    },
    {
      "constant": false,
      "inputs": [
        {
          "name": "_StudentID",
          "type": "uint256"
        },
        {
          "name": "_CourseID",
          "type": "uint256"
        }
      ],
      "name": "studentCourseSearch",
      "outputs": [
        {
          "name": "",
          "type": "uint256"
        },
        {
          "name": "",
          "type": "uint256[]"
        },
        {
          "name": "",
          "type": "uint256"
        },
        {
          "name": "",
          "type": "uint8"
        }
      ],
      "payable": false,
      "stateMutability": "nonpayable",
      "type": "function"
    },
    {
      "constant": false,
      "inputs": [
        {
          "name": "_StudentID",
          "type": "uint256"
        },
        {
          "name": "_CourseID",
          "type": "uint256"
        }
      ],
      "name": "courseStuIDClear",
      "outputs": [],
      "payable": false,
      "stateMutability": "nonpayable",
      "type": "function"
    },
    {
      "constant": false,
      "inputs": [
        {
          "name": "_StudentID",
          "type": "uint256"
        },
        {
          "name": "_CourseID",
          "type": "uint256"
        },
        {
          "name": "_StartTime",
          "type": "uint256"
        }
      ],
      "name": "setStuCourseStartTime",
      "outputs": [],
      "payable": false,
      "stateMutability": "nonpayable",
      "type": "function"
    },
    {
      "constant": false,
      "inputs": [
        {
          "name": "_Controller",
          "type": "address"
        }
      ],
      "name": "setController",
      "outputs": [
        {
          "name": "",
          "type": "bool"
        }
      ],
      "payable": false,
      "stateMutability": "nonpayable",
      "type": "function"
    },
    {
      "constant": false,
      "inputs": [
        {
          "name": "_StudentID",
          "type": "uint256"
        }
      ],
      "name": "getStudentAddressAndUnlockKey",
      "outputs": [
        {
          "name": "",
          "type": "address"
        },
        {
          "name": "",
          "type": "string"
        }
      ],
      "payable": false,
      "stateMutability": "nonpayable",
      "type": "function"
    },
    {
      "constant": false,
      "inputs": [
        {
          "name": "_StudentID",
          "type": "uint256"
        }
      ],
      "name": "getStudentLoginKey",
      "outputs": [
        {
          "name": "",
          "type": "string"
        }
      ],
      "payable": false,
      "stateMutability": "nonpayable",
      "type": "function"
    },
    {
      "constant": false,
      "inputs": [
        {
          "name": "_StudentID",
          "type": "uint256"
        },
        {
          "name": "_CourseID",
          "type": "uint256"
        },
        {
          "name": "_CourseGrade",
          "type": "uint256"
        }
      ],
      "name": "setStuCourseGrade",
      "outputs": [],
      "payable": false,
      "stateMutability": "nonpayable",
      "type": "function"
    },
    {
      "constant": false,
      "inputs": [
        {
          "name": "_CourseID",
          "type": "uint256"
        }
      ],
      "name": "getCourseInfo",
      "outputs": [
        {
          "name": "",
          "type": "string"
        },
        {
          "name": "",
          "type": "uint256"
        },
        {
          "name": "",
          "type": "uint256[]"
        },
        {
          "name": "",
          "type": "uint256[]"
        },
        {
          "name": "",
          "type": "bool"
        }
      ],
      "payable": false,
      "stateMutability": "nonpayable",
      "type": "function"
    },
    {
      "constant": false,
      "inputs": [
        {
          "name": "_StudentID",
          "type": "uint256"
        },
        {
          "name": "_CourseID",
          "type": "uint256"
        },
        {
          "name": "_PreviewTime",
          "type": "uint256"
        }
      ],
      "name": "setStuCoursePreviewTime",
      "outputs": [],
      "payable": false,
      "stateMutability": "nonpayable",
      "type": "function"
    },
    {
      "constant": false,
      "inputs": [
        {
          "name": "_StudentID",
          "type": "uint256"
        }
      ],
      "name": "getStudentName",
      "outputs": [
        {
          "name": "",
          "type": "string"
        }
      ],
      "payable": false,
      "stateMutability": "nonpayable",
      "type": "function"
    },
    {
      "constant": false,
      "inputs": [
        {
          "name": "_StudentClass",
          "type": "uint256"
        },
        {
          "name": "_StudentID",
          "type": "uint256"
        }
      ],
      "name": "classPushStudentID",
      "outputs": [],
      "payable": false,
      "stateMutability": "nonpayable",
      "type": "function"
    },
    {
      "constant": false,
      "inputs": [
        {
          "name": "_CourseID",
          "type": "uint256"
        },
        {
          "name": "_CourseName",
          "type": "string"
        }
      ],
      "name": "setCourseName",
      "outputs": [],
      "payable": false,
      "stateMutability": "nonpayable",
      "type": "function"
    },
    {
      "constant": false,
      "inputs": [
        {
          "name": "_StudentID",
          "type": "uint256"
        },
        {
          "name": "_CourseID",
          "type": "uint256"
        },
        {
          "name": "_TestTimes",
          "type": "uint256"
        },
        {
          "name": "_TestGrade",
          "type": "uint256"
        }
      ],
      "name": "setStuCourseTestGrade",
      "outputs": [],
      "payable": false,
      "stateMutability": "nonpayable",
      "type": "function"
    },
    {
      "constant": false,
      "inputs": [
        {
          "name": "_CourseID",
          "type": "uint256"
        },
        {
          "name": "_Index",
          "type": "uint256"
        }
      ],
      "name": "getCoursePercentageIndex",
      "outputs": [
        {
          "name": "",
          "type": "uint256"
        }
      ],
      "payable": false,
      "stateMutability": "nonpayable",
      "type": "function"
    },
    {
      "constant": false,
      "inputs": [
        {
          "name": "_StudentID",
          "type": "uint256"
        }
      ],
      "name": "studentIDExist",
      "outputs": [
        {
          "name": "",
          "type": "bool"
        }
      ],
      "payable": false,
      "stateMutability": "nonpayable",
      "type": "function"
    },
    {
      "constant": false,
      "inputs": [
        {
          "name": "_senderAddress",
          "type": "address"
        }
      ],
      "name": "managerAuthority",
      "outputs": [
        {
          "name": "",
          "type": "bool"
        }
      ],
      "payable": false,
      "stateMutability": "nonpayable",
      "type": "function"
    },
    {
      "constant": false,
      "inputs": [
        {
          "name": "_StudentID",
          "type": "uint256"
        },
        {
          "name": "_CourseID",
          "type": "uint256"
        },
        {
          "name": "_Length",
          "type": "uint256"
        }
      ],
      "name": "setStuCourseTestGradeLength",
      "outputs": [],
      "payable": false,
      "stateMutability": "nonpayable",
      "type": "function"
    },
    {
      "constant": false,
      "inputs": [
        {
          "name": "_StudentID",
          "type": "uint256"
        },
        {
          "name": "_CourseID",
          "type": "uint256"
        }
      ],
      "name": "getStuCoursePreviewTime",
      "outputs": [
        {
          "name": "",
          "type": "uint256"
        }
      ],
      "payable": false,
      "stateMutability": "nonpayable",
      "type": "function"
    },
    {
      "constant": false,
      "inputs": [
        {
          "name": "_StudentID",
          "type": "uint256"
        },
        {
          "name": "_CourseID",
          "type": "uint256"
        }
      ],
      "name": "stuCourseIDPush",
      "outputs": [],
      "payable": false,
      "stateMutability": "nonpayable",
      "type": "function"
    },
    {
      "constant": false,
      "inputs": [
        {
          "name": "_StudentID",
          "type": "uint256"
        },
        {
          "name": "_CourseID",
          "type": "uint256"
        }
      ],
      "name": "courseStuIDPush",
      "outputs": [],
      "payable": false,
      "stateMutability": "nonpayable",
      "type": "function"
    },
    {
      "constant": false,
      "inputs": [
        {
          "name": "_StudentID",
          "type": "uint256"
        },
        {
          "name": "_CourseID",
          "type": "uint256"
        },
        {
          "name": "_Index",
          "type": "uint256"
        }
      ],
      "name": "getStuCourseTestGradeIndex",
      "outputs": [
        {
          "name": "",
          "type": "uint256"
        }
      ],
      "payable": false,
      "stateMutability": "nonpayable",
      "type": "function"
    },
    {
      "constant": false,
      "inputs": [
        {
          "name": "_StudentID",
          "type": "uint256"
        },
        {
          "name": "_LoginKey",
          "type": "string"
        }
      ],
      "name": "setStudentLoginKey",
      "outputs": [],
      "payable": false,
      "stateMutability": "nonpayable",
      "type": "function"
    },
    {
      "constant": false,
      "inputs": [
        {
          "name": "_StudentID",
          "type": "uint256"
        },
        {
          "name": "_StudentClass",
          "type": "uint256"
        }
      ],
      "name": "setStudentClass",
      "outputs": [],
      "payable": false,
      "stateMutability": "nonpayable",
      "type": "function"
    },
    {
      "constant": false,
      "inputs": [
        {
          "name": "_CourseID",
          "type": "uint256"
        }
      ],
      "name": "setCourseID",
      "outputs": [],
      "payable": false,
      "stateMutability": "nonpayable",
      "type": "function"
    },
    {
      "constant": false,
      "inputs": [
        {
          "name": "_StudentID",
          "type": "uint256"
        },
        {
          "name": "_CourseID",
          "type": "uint256"
        }
      ],
      "name": "getStuCourseTestGrade",
      "outputs": [
        {
          "name": "",
          "type": "uint256[]"
        }
      ],
      "payable": false,
      "stateMutability": "nonpayable",
      "type": "function"
    },
    {
      "constant": false,
      "inputs": [
        {
          "name": "_StudentID",
          "type": "uint256"
        },
        {
          "name": "_CourseID",
          "type": "uint256"
        }
      ],
      "name": "getStuCourseTestGradeLength",
      "outputs": [
        {
          "name": "",
          "type": "uint256"
        }
      ],
      "payable": false,
      "stateMutability": "nonpayable",
      "type": "function"
    },
    {
      "constant": false,
      "inputs": [
        {
          "name": "_StudentID",
          "type": "uint256"
        },
        {
          "name": "_CourseID",
          "type": "uint256"
        }
      ],
      "name": "getStuCourseCourseGrade",
      "outputs": [
        {
          "name": "",
          "type": "uint256"
        }
      ],
      "payable": false,
      "stateMutability": "nonpayable",
      "type": "function"
    },
    {
      "constant": false,
      "inputs": [
        {
          "name": "_StudentID",
          "type": "uint256"
        },
        {
          "name": "_CourseID",
          "type": "uint256"
        }
      ],
      "name": "getStuCourseStartTime",
      "outputs": [
        {
          "name": "",
          "type": "uint256"
        }
      ],
      "payable": false,
      "stateMutability": "nonpayable",
      "type": "function"
    },
    {
      "constant": false,
      "inputs": [
        {
          "name": "_CourseID",
          "type": "uint256"
        },
        {
          "name": "_Advanced",
          "type": "uint256[]"
        }
      ],
      "name": "setCourseAdvanced",
      "outputs": [],
      "payable": false,
      "stateMutability": "nonpayable",
      "type": "function"
    },
    {
      "constant": false,
      "inputs": [
        {
          "name": "_StudentID",
          "type": "uint256"
        },
        {
          "name": "_CourseID",
          "type": "uint256"
        }
      ],
      "name": "getStuCourseLearningProgress",
      "outputs": [
        {
          "name": "",
          "type": "uint8"
        }
      ],
      "payable": false,
      "stateMutability": "nonpayable",
      "type": "function"
    },
    {
      "constant": false,
      "inputs": [
        {
          "name": "_CourseID",
          "type": "uint256"
        }
      ],
      "name": "getCoursePercentageLength",
      "outputs": [
        {
          "name": "",
          "type": "uint256"
        }
      ],
      "payable": false,
      "stateMutability": "nonpayable",
      "type": "function"
    },
    {
      "constant": false,
      "inputs": [
        {
          "name": "_ManagerID",
          "type": "uint256"
        },
        {
          "name": "_ManagerAddress",
          "type": "address"
        }
      ],
      "name": "dataManagerInsert",
      "outputs": [
        {
          "name": "",
          "type": "bool"
        }
      ],
      "payable": false,
      "stateMutability": "nonpayable",
      "type": "function"
    },
    {
      "constant": false,
      "inputs": [
        {
          "name": "_StudentID",
          "type": "uint256"
        },
        {
          "name": "_CourseID",
          "type": "uint256"
        }
      ],
      "name": "courseAdvanced",
      "outputs": [
        {
          "name": "",
          "type": "bool"
        }
      ],
      "payable": false,
      "stateMutability": "nonpayable",
      "type": "function"
    },
    {
      "inputs": [],
      "payable": false,
      "stateMutability": "nonpayable",
      "type": "constructor"
    }
  ],
  "bytecode": "0x6060604052341561000f57600080fd5b33600160006101000a81548173ffffffffffffffffffffffffffffffffffffffff021916908373ffffffffffffffffffffffffffffffffffffffff160217905550614d788061005f6000396000f30060606040526004361061029e576000357c0100000000000000000000000000000000000000000000000000000000900463ffffffff16806302adbf91146102a3578063046beb3a146102e557806313cadff71461031c578063151311cc14610348578063187f8016146103c05780631a8cb118146104265780631c79421a1461048057806325a9f8e7146104f857806326d6ef06146105305780632e945ee41461055c5780632fa661581461059757806335865017146105c35780634602bb13146105fa5780634de5807c1461062857806352dcada71461065d57806357b8bd06146107ed5780635a88fa66146108105780636f8e01961461086a578063704979c5146108bb57806373e7d58e1461092157806376c98ccc1461098457806382113c8714610a9f578063865c695314610c2f57806387b9270214610e2b5780638fb306e314610ecf57806390abb39f14610efb57806392eefe9b14610f305780639372828714610f81578063965cdf081461105057806397473bee146110ec578063981059ee14611121578063985c97051461125f5780639ac43876146112945780639d1c840b146113305780639e1223771461135c578063a039683a146113c2578063a2ac017b14611400578063a5ba100f14611440578063a7e885531461147b578063ac973bb2146114cc578063adac525f14611501578063aff1d01514611541578063b7851f201461156d578063b80a654c14611599578063ba249b68146115e2578063bd210d9414611648578063c4663c0814611674578063cccf832b14611697578063d2b6085114611718578063d812138114611758578063e08f109114611798578063e512387a146117d8578063e536a4a31461183b578063f7a3921314611889578063fc76657a146118c0578063fe701eae1461191a575b600080fd5b34156102ae57600080fd5b6102e3600480803590602001909190803573ffffffffffffffffffffffffffffffffffffffff1690602001909190505061195e565b005b34156102f057600080fd5b61030660048080359060200190919050506119c6565b6040518082815260200191505060405180910390f35b341561032757600080fd5b61034660048080359060200190919080359060200190919050506119fa565b005b341561035357600080fd5b6103696004808035906020019091905050611a28565b6040518080602001828103825283818151815260200191508051906020019060200280838360005b838110156103ac578082015181840152602081019050610391565b505050509050019250505060405180910390f35b34156103cb57600080fd5b610424600480803590602001909190803590602001908201803590602001908080601f01602080910402602001604051908101604052809392919081815260200183838082843782019150505050505091905050611abe565b005b341561043157600080fd5b610466600480803590602001909190803573ffffffffffffffffffffffffffffffffffffffff16906020019091905050611afc565b604051808215151515815260200191505060405180910390f35b341561048b57600080fd5b6104a16004808035906020019091905050611b6b565b6040518080602001828103825283818151815260200191508051906020019060200280838360005b838110156104e45780820151818401526020810190506104c9565b505050509050019250505060405180910390f35b341561050357600080fd5b61052e600480803590602001909190803590602001909190803560ff16906020019091905050611bf0565b005b341561053b57600080fd5b61055a6004808035906020019091908035906020019091905050611c4f565b005b341561056757600080fd5b61057d6004808035906020019091905050611cfa565b604051808215151515815260200191505060405180910390f35b34156105a257600080fd5b6105c16004808035906020019091908035906020019091905050611d69565b005b34156105ce57600080fd5b6105e46004808035906020019091905050611e14565b6040518082815260200191505060405180910390f35b341561060557600080fd5b61062660048080359060200190919080351515906020019091905050611e69565b005b341561063357600080fd5b61065b6004808035906020019091908035906020019091908035906020019091905050611eaa565b005b341561066857600080fd5b6106be600480803590602001908201803590602001908080602002602001604051908101604052809392919081815260200183836020028082843782019150505050505091908035906020019091905050611eed565b6040518080602001806020018060200180602001858103855289818151815260200191508051906020019060200280838360005b8381101561070d5780820151818401526020810190506106f2565b50505050905001858103845288818151815260200191508051906020019060200280838360005b8381101561074f578082015181840152602081019050610734565b50505050905001858103835287818151815260200191508051906020019060200280838360005b83811015610791578082015181840152602081019050610776565b50505050905001858103825286818151815260200191508051906020019060200280838360005b838110156107d35780820151818401526020810190506107b8565b505050509050019850505050505050505060405180910390f35b34156107f857600080fd5b61080e6004808035906020019091905050612358565b005b341561081b57600080fd5b610850600480803590602001909190803573ffffffffffffffffffffffffffffffffffffffff169060200190919050506123ae565b604051808215151515815260200191505060405180910390f35b341561087557600080fd5b6108a1600480803573ffffffffffffffffffffffffffffffffffffffff169060200190919050506124a4565b604051808215151515815260200191505060405180910390f35b34156108c657600080fd5b61091f600480803590602001909190803590602001908201803590602001908080601f01602080910402602001604051908101604052809392919081815260200183838082843782019150505050505091905050612575565b005b341561092c57600080fd5b6109826004808035906020019091908035906020019082018035906020019080806020026020016040519081016040528093929190818152602001838360200280828437820191505050505050919050506125b3565b005b341561098f57600080fd5b6109dc6004808035906020019082018035906020019080806020026020016040519081016040528093929190818152602001838360200280828437820191505050505050919050506125f1565b604051808060200180602001838103835285818151815260200191508051906020019080838360005b83811015610a20578082015181840152602081019050610a05565b50505050905090810190601f168015610a4d5780820380516001836020036101000a031916815260200191505b50838103825284818151815260200191508051906020019060200280838360005b83811015610a89578082015181840152602081019050610a6e565b5050505090500194505050505060405180910390f35b3415610aaa57600080fd5b610b0060048080359060200190919080359060200190820180359060200190808060200260200160405190810160405280939291908181526020018383602002808284378201915050505050509190505061284f565b6040518080602001806020018060200180602001858103855289818151815260200191508051906020019060200280838360005b83811015610b4f578082015181840152602081019050610b34565b50505050905001858103845288818151815260200191508051906020019060200280838360005b83811015610b91578082015181840152602081019050610b76565b50505050905001858103835287818151815260200191508051906020019060200280838360005b83811015610bd3578082015181840152602081019050610bb8565b50505050905001858103825286818151815260200191508051906020019060200280838360005b83811015610c15578082015181840152602081019050610bfa565b505050509050019850505050505050505060405180910390f35b3415610c3a57600080fd5b610c90600480803590602001909190803590602001908201803590602001908080602002602001604051908101604052809392919081815260200183836020028082843782019150505050505091905050612cbb565b60405180806020018060200180602001806020018060200186810386528b818151815260200191508051906020019080838360005b83811015610ce0578082015181840152602081019050610cc5565b50505050905090810190601f168015610d0d5780820380516001836020036101000a031916815260200191505b5086810385528a818151815260200191508051906020019060200280838360005b83811015610d49578082015181840152602081019050610d2e565b50505050905001868103845289818151815260200191508051906020019060200280838360005b83811015610d8b578082015181840152602081019050610d70565b50505050905001868103835288818151815260200191508051906020019060200280838360005b83811015610dcd578082015181840152602081019050610db2565b50505050905001868103825287818151815260200191508051906020019060200280838360005b83811015610e0f578082015181840152602081019050610df4565b505050509050019a505050505050505050505060405180910390f35b3415610e3657600080fd5b610e5560048080359060200190919080359060200190919050506132e8565b6040518085815260200180602001848152602001836006811115610e7557fe5b60ff168152602001828103825285818151815260200191508051906020019060200280838360005b83811015610eb8578082015181840152602081019050610e9d565b505050509050019550505050505060405180910390f35b3415610eda57600080fd5b610ef96004808035906020019091908035906020019091905050613548565b005b3415610f0657600080fd5b610f2e60048080359060200190919080359060200190919080359060200190919050506135f3565b005b3415610f3b57600080fd5b610f67600480803573ffffffffffffffffffffffffffffffffffffffff16906020019091905050613636565b604051808215151515815260200191505060405180910390f35b3415610f8c57600080fd5b610fa260048080359060200190919050506136e2565b604051808373ffffffffffffffffffffffffffffffffffffffff1673ffffffffffffffffffffffffffffffffffffffff16815260200180602001828103825283818151815260200191508051906020019080838360005b83811015611014578082015181840152602081019050610ff9565b50505050905090810190601f1680156110415780820380516001836020036101000a031916815260200191505b50935050505060405180910390f35b341561105b57600080fd5b6110716004808035906020019091905050613803565b6040518080602001828103825283818151815260200191508051906020019080838360005b838110156110b1578082015181840152602081019050611096565b50505050905090810190601f1680156110de5780820380516001836020036101000a031916815260200191505b509250505060405180910390f35b34156110f757600080fd5b61111f60048080359060200190919080359060200190919080359060200190919050506138e6565b005b341561112c57600080fd5b6111426004808035906020019091905050613929565b6040518080602001868152602001806020018060200185151515158152602001848103845289818151815260200191508051906020019080838360005b8381101561119a57808201518184015260208101905061117f565b50505050905090810190601f1680156111c75780820380516001836020036101000a031916815260200191505b50848103835287818151815260200191508051906020019060200280838360005b838110156112035780820151818401526020810190506111e8565b50505050905001848103825286818151815260200191508051906020019060200280838360005b8381101561124557808201518184015260208101905061122a565b505050509050019850505050505050505060405180910390f35b341561126a57600080fd5b6112926004808035906020019091908035906020019091908035906020019091905050613b15565b005b341561129f57600080fd5b6112b56004808035906020019091905050613b58565b6040518080602001828103825283818151815260200191508051906020019080838360005b838110156112f55780820151818401526020810190506112da565b50505050905090810190601f1680156113225780820380516001836020036101000a031916815260200191505b509250505060405180910390f35b341561133b57600080fd5b61135a6004808035906020019091908035906020019091905050613c4b565b005b341561136757600080fd5b6113c0600480803590602001909190803590602001908201803590602001908080601f01602080910402602001604051908101604052809392919081815260200183838082843782019150505050505091905050613c98565b005b34156113cd57600080fd5b6113fe6004808035906020019091908035906020019091908035906020019091908035906020019091905050613cd6565b005b341561140b57600080fd5b61142a6004808035906020019091908035906020019091905050613d32565b6040518082815260200191505060405180910390f35b341561144b57600080fd5b6114616004808035906020019091905050613d7f565b604051808215151515815260200191505060405180910390f35b341561148657600080fd5b6114b2600480803573ffffffffffffffffffffffffffffffffffffffff16906020019091905050613dee565b604051808215151515815260200191505060405180910390f35b34156114d757600080fd5b6114ff6004808035906020019091908035906020019091908035906020019091905050613ea8565b005b341561150c57600080fd5b61152b6004808035906020019091908035906020019091905050613ef3565b6040518082815260200191505060405180910390f35b341561154c57600080fd5b61156b6004808035906020019091908035906020019091905050613f3c565b005b341561157857600080fd5b6115976004808035906020019091908035906020019091905050613f89565b005b34156115a457600080fd5b6115cc6004808035906020019091908035906020019091908035906020019091905050613fd6565b6040518082815260200191505060405180910390f35b34156115ed57600080fd5b611646600480803590602001909190803590602001908201803590602001908080601f01602080910402602001604051908101604052809392919081815260200183838082843782019150505050505091905050614038565b005b341561165357600080fd5b6116726004808035906020019091908035906020019091905050614076565b005b341561167f57600080fd5b61169560048080359060200190919050506140a4565b005b34156116a257600080fd5b6116c160048080359060200190919080359060200190919050506140fa565b6040518080602001828103825283818151815260200191508051906020019060200280838360005b838110156117045780820151818401526020810190506116e9565b505050509050019250505060405180910390f35b341561172357600080fd5b61174260048080359060200190919080359060200190919050506141a8565b6040518082815260200191505060405180910390f35b341561176357600080fd5b61178260048080359060200190919080359060200190919050506141f4565b6040518082815260200191505060405180910390f35b34156117a357600080fd5b6117c2600480803590602001909190803590602001909190505061425e565b6040518082815260200191505060405180910390f35b34156117e357600080fd5b6118396004808035906020019091908035906020019082018035906020019080806020026020016040519081016040528093929190818152602001838360200280828437820191505050505050919050506142a7565b005b341561184657600080fd5b61186560048080359060200190919080359060200190919050506142e5565b6040518082600681111561187557fe5b60ff16815260200191505060405180910390f35b341561189457600080fd5b6118aa600480803590602001909190505061433b565b6040518082815260200191505060405180910390f35b34156118cb57600080fd5b611900600480803590602001909190803573ffffffffffffffffffffffffffffffffffffffff16906020019091905050614372565b604051808215151515815260200191505060405180910390f35b341561192557600080fd5b6119446004808035906020019091908035906020019091905050614533565b604051808215151515815260200191505060405180910390f35b611967336145f6565b156119c257806007600084815260200190815260200160002060050160006101000a81548173ffffffffffffffffffffffffffffffffffffffff021916908373ffffffffffffffffffffffffffffffffffffffff1602179055505b5050565b60006119d1336145f6565b156119f457600460008381526020019081526020016000206002015490506119f5565b5b919050565b611a03336145f6565b15611a24578060046000848152602001908152602001600020600201819055505b5050565b611a30614a08565b611a3933613dee565b80611a4a5750611a498233611afc565b5b15611ab85760066000838152602001908152602001600020805480602002602001604051908101604052809291908181526020018280548015611aac57602002820191906000526020600020905b815481526020019060010190808311611a98575b50505050509050611ab9565b5b919050565b611ac7336145f6565b15611af85780600760008481526020019081526020016000206004019080519060200190611af6929190614a1c565b505b5050565b60008173ffffffffffffffffffffffffffffffffffffffff166007600085815260200190815260200160002060050160009054906101000a900473ffffffffffffffffffffffffffffffffffffffff1673ffffffffffffffffffffffffffffffffffffffff1614905092915050565b611b73614a08565b611b7c33613dee565b15611bea57600a6000838152602001908152602001600020805480602002602001604051908101604052809291908181526020018280548015611bde57602002820191906000526020600020905b815481526020019060010190808311611bca575b50505050509050611beb565b5b919050565b611bf9336145f6565b15611c4a578060076000858152602001908152602001600020600601600084815260200190815260200160002060050160006101000a81548160ff02191690836006811115611c4457fe5b02179055505b505050565b6000611c5a336145f6565b15611cf557600090505b6006600084815260200190815260200160002080549050811015611cf457816006600085815260200190815260200160002082815481101515611ca357fe5b9060005260206000209001541415611ce75760006006600085815260200190815260200160002082815481101515611cd757fe5b9060005260206000209001819055505b8080600101915050611c64565b5b505050565b600080611d06336145f6565b15611d5e57600090505b600580549050811015611d555782600582815481101515611d2d57fe5b9060005260206000209001541415611d485760019150611d63565b8080600101915050611d10565b60009150611d63565b600191505b50919050565b6000611d74336145f6565b15611e0f57600090505b6009600084815260200190815260200160002080549050811015611e0e57816009600085815260200190815260200160002082815481101515611dbd57fe5b9060005260206000209001541415611e015760006009600085815260200190815260200160002082815481101515611df157fe5b9060005260206000209001819055505b8080600101915050611d7e565b5b505050565b6000611e1f33613dee565b80611e305750611e2f8233611afc565b5b80611e405750611e3f336145f6565b5b15611e635760076000838152602001908152602001600020600201549050611e64565b5b919050565b611e72336145f6565b15611ea657806004600084815260200190815260200160002060050160006101000a81548160ff0219169083151502179055505b5050565b611eb3336145f6565b15611ee85780600760008581526020019081526020016000206006016000848152602001908152602001600020600001819055505b505050565b611ef5614a08565b611efd614a08565b611f05614a08565b611f0d614a9c565b6000611f17614ab0565b611f2033613dee565b1561234c576000602081611f349190614af8565b506000602181611f449190614af8565b506000602281611f549190614af8565b506000602381611f649190614b24565b50600091505b87518210156121c157600760008984815181101515611f8557fe5b906020019060200201518152602001908152602001600020600601600088815260200190815260200160002060c060405190810160405290816000820154815260200160018201548152602001600282015481526020016003820180548060200260200160405190810160405280929190818152602001828054801561202a57602002820191906000526020600020905b815481526020019060010190808311612016575b50505050508152602001600482015481526020016005820160009054906101000a900460ff16600681111561205b57fe5b600681111561206657fe5b81525050905060008214156120955780606001516021908051906020019061208f929190614b5e565b5061210a565b6120f360218054806020026020016040519081016040528092919081815260200182805480156120e457602002820191906000526020600020905b8154815260200190600101908083116120d0575b50505050508260600151614660565b60219080519060200190612108929190614b5e565b505b6020805480600101828161211e9190614bab565b916000526020600020900160008360400151909190915055506022805480600101828161214b9190614bab565b91600052602060002090016000836080015190919091505550602380548060010182816121789190614bd7565b91600052602060002090602091828204019190068360a00151909190916101000a81548160ff021916908360068111156121ae57fe5b0217905550508180600101925050611f6a565b60216020602260238380548060200260200160405190810160405280929190818152602001828054801561221457602002820191906000526020600020905b815481526020019060010190808311612200575b505050505093508280548060200260200160405190810160405280929190818152602001828054801561226657602002820191906000526020600020905b815481526020019060010190808311612252575b50505050509250818054806020026020016040519081016040528092919081815260200182805480156122b857602002820191906000526020600020905b8154815260200190600101908083116122a4575b505050505091508080548060200260200160405190810160405280929190818152602001828054801561233857602002820191906000526020600020906000905b82829054906101000a900460ff16600681111561231257fe5b815260200190600101906020826000010492830192600103820291508084116122f95790505b50505050509050955095509550955061234d565b5b505092959194509250565b612361336145f6565b156123ab57806007600083815260200190815260200160002060000181905550600880548060010182816123959190614bab565b9160005260206000209001600083909190915055505b50565b6000806123ba336145f6565b1561249857600090505b60038054905081101561248f57836003828154811015156123e157fe5b906000526020600020900154148061247457508273ffffffffffffffffffffffffffffffffffffffff166002600060038481548110151561241e57fe5b906000526020600020900154815260200190815260200160002060010160009054906101000a900473ffffffffffffffffffffffffffffffffffffffff1673ffffffffffffffffffffffffffffffffffffffff16145b15612482576000915061249d565b80806001019150506123c4565b6001915061249d565b600091505b5092915050565b6000806124b0336145f6565b1561256a57600090505b600880549050811015612561578273ffffffffffffffffffffffffffffffffffffffff16600760006008848154811015156124f157fe5b906000526020600020900154815260200190815260200160002060050160009054906101000a900473ffffffffffffffffffffffffffffffffffffffff1673ffffffffffffffffffffffffffffffffffffffff161415612554576001915061256f565b80806001019150506124ba565b6000915061256f565b600191505b50919050565b61257e336145f6565b156125af57806007600084815260200190815260200160002060010190805190602001906125ad929190614a1c565b505b5050565b6125bc336145f6565b156125ed57806004600084815260200190815260200160002060040190805190602001906125eb929190614b5e565b505b5050565b6125f9614c11565b612601614a08565b612609614c11565b6000612613614c11565b61261c33613dee565b156128465760006024816126309190614af8565b50600091505b85518210156127e85760076000878481518110151561265157fe5b9060200190602002015181526020019081526020016000206001018054600181600116156101000203166002900480601f0160208091040260200160405190810160405280929190818152602001828054600181600116156101000203166002900480156127005780601f106126d557610100808354040283529160200191612700565b820191906000526020600020905b8154815290600101906020018083116126e357829003601f168201915b5050505050905060008214156127425761273b8160206040519081016040528060008152506020604051908101604052806000815250614760565b9250612785565b612782836040805190810160405280600281526020017f2c2000000000000000000000000000000000000000000000000000000000000081525083614760565b92505b602480548060010182816127999190614bab565b91600052602060002090016000600760008a878151811015156127b857fe5b90602001906020020151815260200190815260200160002060020154909190915055508180600101925050612636565b8260248080548060200260200160405190810160405280929190818152602001828054801561283657602002820191906000526020600020905b815481526020019060010190808311612822575b5050505050905094509450612847565b5b505050915091565b612857614a08565b61285f614a08565b612867614a08565b61286f614a9c565b6000612879614ab0565b61288233613dee565b8061289357506128928833611afc565b5b15612caf576000601b816128a79190614af8565b506000601e816128b79190614af8565b506000601f816128c79190614b24565b50600091505b8651821015612b245760076000898152602001908152602001600020600601600088848151811015156128fc57fe5b90602001906020020151815260200190815260200160002060c060405190810160405290816000820154815260200160018201548152602001600282015481526020016003820180548060200260200160405190810160405280929190818152602001828054801561298d57602002820191906000526020600020905b815481526020019060010190808311612979575b50505050508152602001600482015481526020016005820160009054906101000a900460ff1660068111156129be57fe5b60068111156129c957fe5b81525050905060008214156129f8578060600151601d90805190602001906129f2929190614b5e565b50612a6d565b612a56601d805480602002602001604051908101604052809291908181526020018280548015612a4757602002820191906000526020600020905b815481526020019060010190808311612a33575b50505050508260600151614660565b601d9080519060200190612a6b929190614b5e565b505b601b8054806001018281612a819190614bab565b91600052602060002090016000836040015190919091505550601e8054806001018281612aae9190614bab565b91600052602060002090016000836080015190919091505550601f8054806001018281612adb9190614bd7565b91600052602060002090602091828204019190068360a00151909190916101000a81548160ff02191690836006811115612b1157fe5b02179055505081806001019250506128cd565b601b601d601e601f83805480602002602001604051908101604052809291908181526020018280548015612b7757602002820191906000526020600020905b815481526020019060010190808311612b63575b5050505050935082805480602002602001604051908101604052809291908181526020018280548015612bc957602002820191906000526020600020905b815481526020019060010190808311612bb5575b5050505050925081805480602002602001604051908101604052809291908181526020018280548015612c1b57602002820191906000526020600020905b815481526020019060010190808311612c07575b5050505050915080805480602002602001604051908101604052809291908181526020018280548015612c9b57602002820191906000526020600020906000905b82829054906101000a900460ff166006811115612c7557fe5b81526020019060010190602082600001049283019260010382029150808411612c5c5790505b505050505090509550955095509550612cb0565b5b505092959194509250565b612cc3614c11565b612ccb614a08565b612cd3614a08565b612cdb614a08565b612ce3614c25565b612ceb614c11565b600080612cf6614c11565b612cff33613dee565b80612d105750612d0f8b33611afc565b5b156132d9576000601781612d249190614af8565b506000601881612d349190614af8565b506000601981612d449190614af8565b506000601a81612d549190614c39565b50600092505b8951831015613154578983815181101515612d7157fe5b90602001906020020151915060178054806001018281612d919190614bab565b91600052602060002090016000600460008681526020019081526020016000206002015490919091505550600460008381526020019081526020016000206001018054600181600116156101000203166002900480601f016020809104026020016040519081016040528092919081815260200182805460018160011615610100020316600290048015612e665780601f10612e3b57610100808354040283529160200191612e66565b820191906000526020600020905b815481529060010190602001808311612e4957829003601f168201915b505050505090506000831415612ef657612ea18160206040519081016040528060008152506020604051908101604052806000815250614760565b9350600460008381526020019081526020016000206003016018908054612ec9929190614c73565b50600460008381526020019081526020016000206004016019908054612ef0929190614c73565b506130e1565b612f36846040805190810160405280600281526020017f2c2000000000000000000000000000000000000000000000000000000000000081525083614760565b9350612ff66018805480602002602001604051908101604052809291908181526020018280548015612f8757602002820191906000526020600020905b815481526020019060010190808311612f73575b505050505060046000858152602001908152602001600020600301805480602002602001604051908101604052809291908181526020018280548015612fec57602002820191906000526020600020905b815481526020019060010190808311612fd8575b5050505050614660565b6018908051906020019061300b929190614b5e565b506130ca601980548060200260200160405190810160405280929190818152602001828054801561305b57602002820191906000526020600020905b815481526020019060010190808311613047575b5050505050600460008581526020019081526020016000206004018054806020026020016040519081016040528092919081815260200182805480156130c057602002820191906000526020600020905b8154815260200190600101908083116130ac575b5050505050614660565b601990805190602001906130df929190614b5e565b505b601a80548060010182816130f59190614cc5565b91600052602060002090602091828204019190066004600086815260200190815260200160002060050160009054906101000a900460ff16909190916101000a81548160ff021916908315150217905550508280600101935050612d5a565b83601760186019601a838054806020026020016040519081016040528092919081815260200182805480156131a857602002820191906000526020600020905b815481526020019060010190808311613194575b50505050509350828054806020026020016040519081016040528092919081815260200182805480156131fa57602002820191906000526020600020905b8154815260200190600101908083116131e6575b505050505092508180548060200260200160405190810160405280929190818152602001828054801561324c57602002820191906000526020600020905b815481526020019060010190808311613238575b50505050509150808054806020026020016040519081016040528092919081815260200182805480156132c357602002820191906000526020600020906000905b82829054906101000a900460ff1615158152602001906001019060208260000104928301926001038202915080841161328d5790505b50505050509050985098509850985098506132da565b5b505050509295509295909350565b60006132f2614a08565b600080600061330033613dee565b8061331157506133108733611afc565b5b1561353d57600090505b60038054905081101561353c576002600060038381548110151561333b57fe5b906000526020600020900154815260200190815260200160002060010160009054906101000a900473ffffffffffffffffffffffffffffffffffffffff1673ffffffffffffffffffffffffffffffffffffffff163373ffffffffffffffffffffffffffffffffffffffff16148061341357506007600088815260200190815260200160002060050160009054906101000a900473ffffffffffffffffffffffffffffffffffffffff1673ffffffffffffffffffffffffffffffffffffffff163373ffffffffffffffffffffffffffffffffffffffff16145b1561352f5760076000888152602001908152602001600020600601600087815260200190815260200160002060020154600760008981526020019081526020016000206006016000888152602001908152602001600020600301600760008a8152602001908152602001600020600601600089815260200190815260200160002060040154600760008b815260200190815260200160002060060160008a815260200190815260200160002060050160009054906101000a900460ff168280548060200260200160405190810160405280929190818152602001828054801561351b57602002820191906000526020600020905b815481526020019060010190808311613507575b50505050509250945094509450945061353e565b808060010191505061331b565b5b5b5092959194509250565b6000613553336145f6565b156135ee57600090505b60066000848152602001908152602001600020805490508110156135ed5782600a60008481526020019081526020016000208281548110151561359c57fe5b90600052602060002090015414156135e0576000600a6000848152602001908152602001600020828154811015156135d057fe5b9060005260206000209001819055505b808060010191505061355d565b5b505050565b6135fc336145f6565b156136315780600760008581526020019081526020016000206006016000848152602001908152602001600020600101819055505b505050565b6000600160009054906101000a900473ffffffffffffffffffffffffffffffffffffffff1673ffffffffffffffffffffffffffffffffffffffff163373ffffffffffffffffffffffffffffffffffffffff1614151561369857600090506136dd565b816000806101000a81548173ffffffffffffffffffffffffffffffffffffffff021916908373ffffffffffffffffffffffffffffffffffffffff160217905550600190505b919050565b60006136ec614c11565b6136f533613dee565b8061370657506137058333611afc565b5b156137fd576007600084815260200190815260200160002060050160009054906101000a900473ffffffffffffffffffffffffffffffffffffffff1660076000858152602001908152602001600020600401808054600181600116156101000203166002900480601f0160208091040260200160405190810160405280929190818152602001828054600181600116156101000203166002900480156137ed5780601f106137c2576101008083540402835291602001916137ed565b820191906000526020600020905b8154815290600101906020018083116137d057829003601f168201915b50505050509050915091506137fe565b5b915091565b61380b614c11565b61381433613dee565b8061382557506138248233611afc565b5b156138e057600760008381526020019081526020016000206003018054600181600116156101000203166002900480601f0160208091040260200160405190810160405280929190818152602001828054600181600116156101000203166002900480156138d45780601f106138a9576101008083540402835291602001916138d4565b820191906000526020600020905b8154815290600101906020018083116138b757829003601f168201915b505050505090506138e1565b5b919050565b6138ef336145f6565b156139245780600760008581526020019081526020016000206006016000848152602001908152602001600020600401819055505b505050565b613931614c11565b600061393b614a08565b613943614a08565b600060046000878152602001908152602001600020600101600460008881526020019081526020016000206002015460046000898152602001908152602001600020600301600460008a8152602001908152602001600020600401600460008b815260200190815260200160002060050160009054906101000a900460ff16848054600181600116156101000203166002900480601f016020809104026020016040519081016040528092919081815260200182805460018160011615610100020316600290048015613a575780601f10613a2c57610100808354040283529160200191613a57565b820191906000526020600020905b815481529060010190602001808311613a3a57829003601f168201915b5050505050945082805480602002602001604051908101604052809291908181526020018280548015613aa957602002820191906000526020600020905b815481526020019060010190808311613a95575b5050505050925081805480602002602001604051908101604052809291908181526020018280548015613afb57602002820191906000526020600020905b815481526020019060010190808311613ae7575b505050505091509450945094509450945091939590929450565b613b1e336145f6565b15613b535780600760008581526020019081526020016000206006016000848152602001908152602001600020600201819055505b505050565b613b60614c11565b613b6933613dee565b80613b7a5750613b798233611afc565b5b80613b8a5750613b89336145f6565b5b15613c4557600760008381526020019081526020016000206001018054600181600116156101000203166002900480601f016020809104026020016040519081016040528092919081815260200182805460018160011615610100020316600290048015613c395780601f10613c0e57610100808354040283529160200191613c39565b820191906000526020600020905b815481529060010190602001808311613c1c57829003601f168201915b50505050509050613c46565b5b919050565b613c54336145f6565b15613c9457600960008381526020019081526020016000208054806001018281613c7e9190614bab565b9160005260206000209001600083909190915055505b5050565b613ca1336145f6565b15613cd25780600460008481526020019081526020016000206001019080519060200190613cd0929190614a1c565b505b5050565b613cdf336145f6565b15613d2c578060076000868152602001908152602001600020600601600085815260200190815260200160002060030183815481101515613d1c57fe5b9060005260206000209001819055505b50505050565b6000613d3d336145f6565b15613d78576004600084815260200190815260200160002060040182815481101515613d6557fe5b9060005260206000209001549050613d79565b5b92915050565b600080613d8b336145f6565b15613de357600090505b600880549050811015613dda5782600882815481101515613db257fe5b9060005260206000209001541415613dcd5760019150613de8565b8080600101915050613d95565b60009150613de8565b600191505b50919050565b600080600090505b600380549050811015613e9d5760026000600383815481101515613e1657fe5b906000526020600020900154815260200190815260200160002060010160009054906101000a900473ffffffffffffffffffffffffffffffffffffffff1673ffffffffffffffffffffffffffffffffffffffff168373ffffffffffffffffffffffffffffffffffffffff161415613e905760019150613ea2565b8080600101915050613df6565b600091505b50919050565b613eb1336145f6565b15613eee578060076000858152602001908152602001600020600601600084815260200190815260200160002060030181613eec9190614af8565b505b505050565b6000613efe336145f6565b15613f3557600760008481526020019081526020016000206006016000838152602001908152602001600020600201549050613f36565b5b92915050565b613f45336145f6565b15613f8557600660008381526020019081526020016000208054806001018281613f6f9190614bab565b9160005260206000209001600083909190915055505b5050565b613f92336145f6565b15613fd257600a60008281526020019081526020016000208054806001018281613fbc9190614bab565b9160005260206000209001600084909190915055505b5050565b6000613fe1336145f6565b15614030576007600085815260200190815260200160002060060160008481526020019081526020016000206003018281548110151561401d57fe5b9060005260206000209001549050614031565b5b9392505050565b614041336145f6565b156140725780600760008481526020019081526020016000206003019080519060200190614070929190614a1c565b505b5050565b61407f336145f6565b156140a0578060076000848152602001908152602001600020600201819055505b5050565b6140ad336145f6565b156140f757806004600083815260200190815260200160002060000181905550600580548060010182816140e19190614bab565b9160005260206000209001600083909190915055505b50565b614102614a08565b61410b33613dee565b8061411c575061411b8333611afc565b5b156141a15760076000848152602001908152602001600020600601600083815260200190815260200160002060030180548060200260200160405190810160405280929190818152602001828054801561419557602002820191906000526020600020905b815481526020019060010190808311614181575b505050505090506141a2565b5b92915050565b60006141b3336145f6565b156141ed576007600084815260200190815260200160002060060160008381526020019081526020016000206003018054905090506141ee565b5b92915050565b60006141ff33613dee565b80614210575061420f8333611afc565b5b80614220575061421f336145f6565b5b1561425757600760008481526020019081526020016000206006016000838152602001908152602001600020600401549050614258565b5b92915050565b6000614269336145f6565b156142a0576007600084815260200190815260200160002060060160008381526020019081526020016000206001015490506142a1565b5b92915050565b6142b0336145f6565b156142e157806004600084815260200190815260200160002060030190805190602001906142df929190614b5e565b505b5050565b60006142f0336145f6565b156143345760076000848152602001908152602001600020600601600083815260200190815260200160002060050160009054906101000a900460ff169050614335565b5b92915050565b6000614346336145f6565b1561436c576004600083815260200190815260200160002060040180549050905061436d565b5b919050565b60008060009054906101000a900473ffffffffffffffffffffffffffffffffffffffff1673ffffffffffffffffffffffffffffffffffffffff163373ffffffffffffffffffffffffffffffffffffffff16148061445f575060008060009054906101000a900473ffffffffffffffffffffffffffffffffffffffff1673ffffffffffffffffffffffffffffffffffffffff1614801561445e5750600160009054906101000a900473ffffffffffffffffffffffffffffffffffffffff1673ffffffffffffffffffffffffffffffffffffffff163273ffffffffffffffffffffffffffffffffffffffff16145b5b156145285760408051908101604052808481526020018373ffffffffffffffffffffffffffffffffffffffff16815250600260008581526020019081526020016000206000820151816000015560208201518160010160006101000a81548173ffffffffffffffffffffffffffffffffffffffff021916908373ffffffffffffffffffffffffffffffffffffffff1602179055509050506003805480600101828161450a9190614bab565b9160005260206000209001600085909190915055506001905061452d565b600090505b92915050565b60008061453f336145f6565b156145ea57600090505b60046000848152602001908152602001600020600301805490508110156145e157603c60076000868152602001908152602001600020600601600060046000878152602001908152602001600020600301848154811015156145a757fe5b90600052602060002090015481526020019081526020016000206004015410156145d457600091506145ef565b8080600101915050614549565b600191506145ef565b600091505b5092915050565b60008060009054906101000a900473ffffffffffffffffffffffffffffffffffffffff1673ffffffffffffffffffffffffffffffffffffffff163373ffffffffffffffffffffffffffffffffffffffff161415614656576001905061465b565b600090505b919050565b614668614a08565b60008360169080519060200190614680929190614b5e565b50601680548060010182816146959190614bab565b91600052602060002090016000606590919091505550600090505b825181101561470657601680548060010182816146cd9190614bab565b9160005260206000209001600085848151811015156146e857fe5b906020019060200201519091909150555080806001019150506146b0565b601680548060200260200160405190810160405280929190818152602001828054801561475257602002820191906000526020600020905b81548152602001906001019080831161473e575b505050505091505092915050565b614768614c11565b614770614cff565b614778614cff565b614780614cff565b614788614c11565b614790614cff565b6000808a965089955088945084518651885101016040518059106147b15750595b9080825280601f01601f1916602001820160405250935083925060009150600090505b86518110156148875786818151811015156147eb57fe5b9060200101517f010000000000000000000000000000000000000000000000000000000000000090047f010000000000000000000000000000000000000000000000000000000000000002838380600101945081518110151561484a57fe5b9060200101907effffffffffffffffffffffffffffffffffffffffffffffffffffffffffffff1916908160001a90535080806001019150506147d4565b600090505b855181101561493f5785818151811015156148a357fe5b9060200101517f010000000000000000000000000000000000000000000000000000000000000090047f010000000000000000000000000000000000000000000000000000000000000002838380600101945081518110151561490257fe5b9060200101907effffffffffffffffffffffffffffffffffffffffffffffffffffffffffffff1916908160001a905350808060010191505061488c565b600090505b84518110156149f757848181518110151561495b57fe5b9060200101517f010000000000000000000000000000000000000000000000000000000000000090047f01000000000000000000000000000000000000000000000000000000000000000283838060010194508151811015156149ba57fe5b9060200101907effffffffffffffffffffffffffffffffffffffffffffffffffffffffffffff1916908160001a9053508080600101915050614944565b829750505050505050509392505050565b602060405190810160405280600081525090565b828054600181600116156101000203166002900490600052602060002090601f016020900481019282601f10614a5d57805160ff1916838001178555614a8b565b82800160010185558215614a8b579182015b82811115614a8a578251825591602001919060010190614a6f565b5b509050614a989190614d13565b5090565b602060405190810160405280600081525090565b60c060405190810160405280600081526020016000815260200160008152602001614ad9614d38565b81526020016000815260200160006006811115614af257fe5b81525090565b815481835581811511614b1f57818360005260206000209182019101614b1e9190614d13565b5b505050565b815481835581811511614b5957601f016020900481601f01602090048360005260206000209182019101614b589190614d13565b5b505050565b828054828255906000526020600020908101928215614b9a579160200282015b82811115614b99578251825591602001919060010190614b7e565b5b509050614ba79190614d13565b5090565b815481835581811511614bd257818360005260206000209182019101614bd19190614d13565b5b505050565b815481835581811511614c0c57601f016020900481601f01602090048360005260206000209182019101614c0b9190614d13565b5b505050565b602060405190810160405280600081525090565b602060405190810160405280600081525090565b815481835581811511614c6e57601f016020900481601f01602090048360005260206000209182019101614c6d9190614d13565b5b505050565b828054828255906000526020600020908101928215614cb45760005260206000209182015b82811115614cb3578254825591600101919060010190614c98565b5b509050614cc19190614d13565b5090565b815481835581811511614cfa57601f016020900481601f01602090048360005260206000209182019101614cf99190614d13565b5b505050565b602060405190810160405280600081525090565b614d3591905b80821115614d31576000816000905550600101614d19565b5090565b90565b6020604051908101604052806000815250905600a165627a7a7230582019d965b0604ad5c15889d6658c692e50bc5ec52f426f3bc6d1d30affa966ec390029",
  "source": "pragma solidity ^0.4.18;\r\n\r\ncontract StudyData {\r\n\r\n    address Controller;\r\n    address Owner;\r\n\r\n    struct Manager {\r\n    uint ManagerID;\r\n    address ManagerAddr;\r\n    }\r\n    mapping (uint => Manager) managers;                 //ManagerID => Manager\r\n    uint[] ManagerList;                                 //storage ManagerID\r\n\r\n    struct Course {\r\n    uint CourseID;\r\n    string CourseName;\r\n    uint RequiredTime;\r\n    uint[] Advanced;\r\n    uint[] Percentage;\r\n    bool Compulsory;\r\n    }\r\n    mapping (uint => Course) courses;           //CourseID => Course\r\n    uint[] CourseList;\r\n\r\n    enum LearningProgress {\r\n    NotStart, Start, PreviewStart, PreviewEnd, Test, NotPass, Pass\r\n    }\r\n\r\n    struct Stu_Courses {\r\n    uint CourseID;\r\n    //string CourseName;\r\n    uint StartTime;\r\n    uint PreviewTime;\r\n    //bool Compulsory;\r\n    uint[] TestGrade;\r\n    uint CourseGrade;\r\n    LearningProgress Lp;\r\n    }\r\n\r\n    struct Student {\r\n    uint StudentID;\r\n    string StudentName;\r\n    uint StudentClass;\r\n    string LoginKey;\r\n    string UnlockKey;\r\n    address StudentAddr;\r\n    mapping (uint => Stu_Courses) stu_courses;       //CourseID => Course\r\n    }\r\n    mapping (uint => uint[]) stu_course_id;     //StudentID => CourseID[]\r\n    mapping (uint => Student) students;      //StudentID => Student\r\n    uint[] StudentList;\r\n\r\n    mapping (uint => uint[]) class_stu;             //StudentClass => StudentID[]\r\n\r\n    mapping (uint => uint[]) course_stu_id;            //CourseID => StudentID[]\r\n\r\n    uint[10] dynUintToFixed10;\r\n    uint[] dyn;\r\n    uint[] r;\r\n\r\n    uint[] sciRequiredTime;\r\n    uint[] sciAdvanced;\r\n    uint[] sciPercentage;\r\n    bool[] sciCompulsory;\r\n\r\n    uint[] scsStudyTime;\r\n    bool[] scsCompulsory;\r\n    uint[] scsTestGrade;\r\n    uint[] scsCourseGrade;\r\n    LearningProgress[] scsLp;\r\n\r\n    uint[] cssStudyTime;\r\n    uint[] cssTestGrade;\r\n    uint[] cssCourseGrade;\r\n    LearningProgress[] cssLp;\r\n\r\n    uint[] siStudentClass;\r\n\r\n\r\n\r\n    function StudyData () {\r\n        Owner = msg.sender;\r\n    }\r\n\r\n    // set the address of controller contract\r\n    function setController (address _Controller) returns (bool) {\r\n        if(msg.sender != Owner)\r\n        return false;\r\n        else {\r\n            Controller = _Controller;\r\n            return true;\r\n        }\r\n    }\r\n\r\n\r\n\r\n    // connect three string\r\n    function strConcat(string _a, string _b, string _c) private view returns (string){\r\n        bytes memory _ba = bytes(_a);\r\n        bytes memory _bb = bytes(_b);\r\n        bytes memory _bc = bytes(_c);\r\n        string memory abc = new string(_ba.length + _bb.length + _bc.length);\r\n        bytes memory babc = bytes(abc);\r\n        uint k = 0;\r\n        for (uint i = 0; i < _ba.length; i++) babc[k++] = _ba[i];\r\n        for (i = 0; i < _bb.length; i++) babc[k++] = _bb[i];\r\n        for (i = 0; i < _bc.length; i++) babc[k++] = _bc[i];\r\n        return string(babc);\r\n    }\r\n\r\n    // connect two arrays, separated by 101\r\n    function arrayConcat(uint[] _a, uint[] _c) private view returns(uint[]) {\r\n        r = _a;\r\n        r.push(101);\r\n        for (uint j = 0; j < _c.length; j++) {\r\n            r.push(_c[j]);\r\n        }\r\n        return r;\r\n    }\r\n\r\n\r\n\r\n    // check whether the address belongs to the administrator or not\r\n    function managerAuthority (address _senderAddress) returns (bool) {\r\n        for (uint i = 0; i < ManagerList.length; i++) {\r\n            if(_senderAddress == managers[ManagerList[i]].ManagerAddr){\r\n                return true;\r\n            }\r\n        }\r\n        return false;\r\n    }\r\n\r\n    // check whether the address belongs to the controller contract or not\r\n    function controllerAuthority (address _senderAddress) private view returns (bool) {\r\n        if(msg.sender == Controller)\r\n        return true;\r\n        else return false;\r\n    }\r\n\r\n    // check whether the address belongs to the student or not\r\n    function studentAuthority (uint _StudentID, address _StudentAddr) returns (bool) {\r\n        return students[_StudentID].StudentAddr == _StudentAddr;\r\n    }\r\n\r\n    // check whether the manager address or the managerID is exist or not\r\n    function managerAvailable (uint _ManagerID, address _ManagerAddr) returns (bool) {\r\n        if (controllerAuthority(msg.sender)) {\r\n            for (uint m = 0; m < ManagerList.length; m++) {\r\n                if(ManagerList[m] == _ManagerID || managers[ManagerList[m]].ManagerAddr == _ManagerAddr) {\r\n                    return false;\r\n                }\r\n            }\r\n            return true;\r\n        }\r\n        else return false;\r\n    }\r\n\r\n    // check whether the student address is exist or not\r\n    function studentAddrExist (address _StudentAddr) returns (bool) {\r\n        if (controllerAuthority(msg.sender)) {\r\n            for (uint s = 0; s < StudentList.length; s++) {\r\n                if (students[StudentList[s]].StudentAddr == _StudentAddr) {\r\n                    return true;\r\n                }\r\n            }\r\n            return false;\r\n        }\r\n        else return true;\r\n    }\r\n\r\n    // check whether the StudentID is exist or not\r\n    function studentIDExist (uint _StudentID) returns (bool) {\r\n        if (controllerAuthority(msg.sender)) {\r\n            for (uint s = 0; s < StudentList.length; s++) {\r\n                if (StudentList[s] == _StudentID) {\r\n                    return true;\r\n                }\r\n            }\r\n            return false;\r\n        }\r\n        else return true;\r\n    }\r\n\r\n    // check whether the courseID is exist or not\r\n    function courseIDExist (uint _CourseID) returns (bool) {\r\n        if (controllerAuthority(msg.sender)) {\r\n            for (uint c = 0; c < CourseList.length; c++) {\r\n                if(CourseList[c] == _CourseID)\r\n                return true;\r\n            }\r\n            return false;\r\n        }\r\n        else return true;\r\n    }\r\n\r\n    // check whether the student has passed all advanced courses for this course or not\r\n    function courseAdvanced (uint _StudentID, uint _CourseID) returns (bool) {\r\n        if (controllerAuthority(msg.sender)) {\r\n            for (uint h = 0; h < courses[_CourseID].Advanced.length; h++) {\r\n                if (students[_StudentID].stu_courses[courses[_CourseID].Advanced[h]].CourseGrade < 60){\r\n                    return false;\r\n                }\r\n            }\r\n            return true;\r\n        }\r\n        else return false;\r\n    }\r\n\r\n\r\n\r\n    // return student's name, not for controller contract but for manager or student\r\n    function getStudentName (uint _StudentID) returns (string) {\r\n        if(managerAuthority(msg.sender) || studentAuthority(_StudentID, msg.sender) || controllerAuthority(msg.sender))\r\n        return students[_StudentID].StudentName;\r\n    }\r\n\r\n    // return student's class, for controller contract or manager or student\r\n    function getStudentClass (uint _StudentID) returns (uint) {\r\n        if(managerAuthority(msg.sender) || studentAuthority(_StudentID, msg.sender) || controllerAuthority(msg.sender))\r\n        return students[_StudentID].StudentClass;\r\n    }\r\n\r\n    // return student's LoginKey, not for controller contract but for manager or student\r\n    function getStudentLoginKey (uint _StudentID) returns (string) {\r\n        if(managerAuthority(msg.sender) || studentAuthority(_StudentID, msg.sender))\r\n        return students[_StudentID].LoginKey;\r\n    }\r\n\r\n    // return student's address ande UnlockKey, not for controller contract but for manager or student\r\n    function getStudentAddressAndUnlockKey (uint _StudentID) returns (address, string) {\r\n        if (managerAuthority(msg.sender) || studentAuthority(_StudentID, msg.sender))\r\n        return (students[_StudentID].StudentAddr, students[_StudentID].UnlockKey);\r\n    }\r\n\r\n    // return the course information including course name, required time, advanced courses, test grade and compulsory\r\n    function getCourseInfo (uint _CourseID) returns (string, uint, uint[], uint[], bool) {\r\n        return (courses[_CourseID].CourseName, courses[_CourseID].RequiredTime, courses[_CourseID].Advanced, courses[_CourseID].Percentage, courses[_CourseID].Compulsory);\r\n    }\r\n\r\n    // return the required time of the course\r\n    function getCourseRequiredTime (uint _CourseID) returns (uint) {\r\n        if (controllerAuthority(msg.sender))\r\n        return courses[_CourseID].RequiredTime;\r\n    }\r\n\r\n    // return the number of components of the course performance\r\n    function getCoursePercentageLength (uint _CourseID) returns (uint) {\r\n        if (controllerAuthority(msg.sender))\r\n        return courses[_CourseID].Percentage.length;\r\n    }\r\n\r\n    // return the specified component of the course performance\r\n    function getCoursePercentageIndex (uint _CourseID, uint _Index) returns (uint) {\r\n        if (controllerAuthority(msg.sender))\r\n        return courses[_CourseID].Percentage[_Index];\r\n    }\r\n\r\n    // return the preview start time of the course\r\n    function getStuCourseStartTime (uint _StudentID, uint _CourseID) returns (uint) {\r\n        if(controllerAuthority(msg.sender))\r\n        return students[_StudentID].stu_courses[_CourseID].StartTime;\r\n    }\r\n\r\n    // return the preview time of the course\r\n    function getStuCoursePreviewTime (uint _StudentID, uint _CourseID) returns (uint) {\r\n        if (controllerAuthority(msg.sender))\r\n        return students[_StudentID].stu_courses[_CourseID].PreviewTime;\r\n    }\r\n\r\n    // return the length of test grade array\r\n    function getStuCourseTestGradeLength (uint _StudentID, uint _CourseID) returns (uint) {\r\n        if (controllerAuthority(msg.sender))\r\n        return students[_StudentID].stu_courses[_CourseID].TestGrade.length;\r\n    }\r\n\r\n    // return the test grade of course\r\n    function getStuCourseTestGrade (uint _StudentID, uint _CourseID) returns (uint[]) {\r\n        if (managerAuthority(msg.sender) || studentAuthority(_StudentID, msg.sender)) {\r\n            return students[_StudentID].stu_courses[_CourseID].TestGrade;\r\n        }\r\n    }\r\n\r\n    // return the specified component of the testgrade\r\n    function getStuCourseTestGradeIndex (uint _StudentID, uint _CourseID, uint _Index) returns (uint) {\r\n        if (controllerAuthority(msg.sender))\r\n        return students[_StudentID].stu_courses[_CourseID].TestGrade[_Index];\r\n    }\r\n\r\n    // return the course grade\r\n    function getStuCourseCourseGrade (uint _StudentID, uint _CourseID) returns (uint) {\r\n        if (managerAuthority(msg.sender) || studentAuthority(_StudentID, msg.sender) || controllerAuthority(msg.sender))\r\n        return students[_StudentID].stu_courses[_CourseID].CourseGrade;\r\n    }\r\n\r\n    // return the progress of course learning\r\n    function getStuCourseLearningProgress (uint _StudentID, uint _CourseID) returns (LearningProgress) {\r\n        if (controllerAuthority(msg.sender))\r\n        return students[_StudentID].stu_courses[_CourseID].Lp;\r\n    }\r\n\r\n\r\n\r\n    function studentCourseSearch(uint _StudentID, uint _CourseID) returns (uint, uint[], uint, LearningProgress) {\r\n        if (managerAuthority(msg.sender) || studentAuthority(_StudentID, msg.sender))\r\n        for (uint i = 0; i < ManagerList.length; i++)\r\n        if(msg.sender == managers[ManagerList[i]].ManagerAddr || msg.sender == students[_StudentID].StudentAddr)\r\n        return (students[_StudentID].stu_courses[_CourseID].PreviewTime, students[_StudentID].stu_courses[_CourseID].TestGrade, students[_StudentID].stu_courses[_CourseID].CourseGrade, students[_StudentID].stu_courses[_CourseID].Lp);\r\n    }\r\n\r\n    function studentCoursesList(uint _StudentID) returns (uint[]) {\r\n        if (managerAuthority(msg.sender) || studentAuthority(_StudentID, msg.sender)) {\r\n            return stu_course_id[_StudentID];\r\n        }\r\n    }\r\n\r\n    function courseStudentList(uint _CourseID) returns (uint[]) {\r\n        if (managerAuthority(msg.sender)) {\r\n            return course_stu_id[_CourseID];\r\n        }\r\n    }\r\n\r\n    function studentCoursesSearch(uint _StudentID, uint[] _CoursesIDList) returns (uint[], uint[], uint[], LearningProgress[]) {\r\n        if (managerAuthority(msg.sender) || studentAuthority(_StudentID, msg.sender)) {\r\n            scsStudyTime.length = 0;\r\n            scsCourseGrade.length = 0;\r\n            scsLp.length = 0;\r\n            for (uint c = 0; c < _CoursesIDList.length; c++) {\r\n                Stu_Courses memory b = students[_StudentID].stu_courses[_CoursesIDList[c]];\r\n                if (c == 0) {\r\n                    scsTestGrade = b.TestGrade;\r\n                }\r\n                else {\r\n                    scsTestGrade = arrayConcat(scsTestGrade, b.TestGrade);\r\n                }\r\n                scsStudyTime.push(b.PreviewTime);\r\n                scsCourseGrade.push(b.CourseGrade);\r\n                scsLp.push(b.Lp);\r\n            }\r\n            return (scsStudyTime, scsTestGrade, scsCourseGrade, scsLp);\r\n        }\r\n\r\n    }\r\n\r\n    function CoursesInfo(uint _StudentID, uint[] _CoursesIDList) returns (string, uint[], uint[], uint[], bool[]) {\r\n        if (managerAuthority(msg.sender) || studentAuthority(_StudentID, msg.sender)) {\r\n            sciRequiredTime.length = 0;\r\n            sciAdvanced.length = 0;\r\n            sciPercentage.length = 0;\r\n            sciCompulsory.length = 0;\r\n            string memory sciCourseName;\r\n\r\n            for(uint c = 0; c < _CoursesIDList.length; c++) {\r\n                uint _CourseID = _CoursesIDList[c];\r\n                sciRequiredTime.push(courses[_CourseID].RequiredTime);\r\n                string memory cn = courses[_CourseID].CourseName;\r\n                if(c == 0) {\r\n                    sciCourseName = strConcat(cn, \"\", \"\");\r\n                    sciAdvanced = courses[_CourseID].Advanced;\r\n                    sciPercentage = courses[_CourseID].Percentage;\r\n                }\r\n                else {\r\n                    sciCourseName = strConcat(sciCourseName, \", \", cn);\r\n                    sciAdvanced = arrayConcat(sciAdvanced, courses[_CourseID].Advanced);\r\n                    sciPercentage = arrayConcat(sciPercentage, courses[_CourseID].Percentage);\r\n                }\r\n                sciCompulsory.push(courses[_CourseID].Compulsory);\r\n            }\r\n            return (sciCourseName, sciRequiredTime, sciAdvanced, sciPercentage, sciCompulsory);\r\n        }\r\n    }\r\n\r\n    function courseStudentsSearch(uint[] _StudentsIDList, uint _CourseID) returns (uint[], uint[], uint[], LearningProgress[]) {\r\n        if (managerAuthority(msg.sender)) {\r\n            cssStudyTime.length = 0;\r\n            cssTestGrade.length = 0;\r\n            cssCourseGrade.length = 0;\r\n            cssLp.length = 0;\r\n\r\n            for (uint s = 0; s < _StudentsIDList.length; s++) {\r\n                Stu_Courses memory b = students[_StudentsIDList[s]].stu_courses[_CourseID];\r\n                if (s == 0) {\r\n                    cssTestGrade = b.TestGrade;\r\n                }\r\n                else {\r\n                    cssTestGrade = arrayConcat(cssTestGrade, b.TestGrade);\r\n                }\r\n                cssStudyTime.push(b.PreviewTime);\r\n                cssCourseGrade.push(b.CourseGrade);\r\n                cssLp.push(b.Lp);\r\n            }\r\n            return (cssTestGrade, cssStudyTime, cssCourseGrade, cssLp);\r\n        }\r\n\r\n    }\r\n\r\n    function studentsInfo(uint[] _StudentsIDList) returns(string, uint[]) {\r\n        if (managerAuthority(msg.sender)) {\r\n            siStudentClass.length = 0;\r\n            string memory siStudentName;\r\n            for (uint s = 0; s < _StudentsIDList.length; s++) {\r\n                string memory sn = students[_StudentsIDList[s]].StudentName;\r\n                if (s == 0)\r\n                siStudentName = strConcat(sn, \"\", \"\");\r\n                else\r\n                siStudentName = strConcat(siStudentName, \", \", sn);\r\n                siStudentClass.push(students[_StudentsIDList[s]].StudentClass);\r\n            }\r\n            return (siStudentName, siStudentClass);\r\n        }\r\n    }\r\n\r\n\r\n\r\n    // set the student ID and push student ID into student list\r\n    function setStudentID (uint _StudentID) {\r\n        if (controllerAuthority(msg.sender)) {\r\n            students[_StudentID].StudentID = _StudentID;\r\n            StudentList.push(_StudentID);\r\n        }\r\n    }\r\n\r\n    // set student's name\r\n    function setStudentName (uint _StudentID, string _StudentName) {\r\n        if (controllerAuthority(msg.sender))\r\n        students[_StudentID].StudentName = _StudentName;\r\n    }\r\n\r\n    // set student's class\r\n    function setStudentClass (uint _StudentID, uint _StudentClass) {\r\n        if (controllerAuthority(msg.sender))\r\n        students[_StudentID].StudentClass = _StudentClass;\r\n    }\r\n\r\n    // set student's login key\r\n    function setStudentLoginKey (uint _StudentID, string _LoginKey) {\r\n        if (controllerAuthority(msg.sender))\r\n        students[_StudentID].LoginKey = _LoginKey;\r\n    }\r\n\r\n    // set student's unlock key\r\n    function setStudentUnLockKey (uint _StudentID, string _UnlockKey) {\r\n        if (controllerAuthority(msg.sender))\r\n        students[_StudentID].UnlockKey = _UnlockKey;\r\n    }\r\n\r\n    // set student's address\r\n    function setStudentAddr (uint _StudentID, address _StudentAddr) {\r\n        if (controllerAuthority(msg.sender))\r\n        students[_StudentID].StudentAddr = _StudentAddr;\r\n    }\r\n\r\n    // clear the student ID in the class_stu list\r\n    function classClearStudentID (uint _StudentClass, uint _StudentID) {\r\n        if (controllerAuthority(msg.sender))\r\n        for(uint i = 0; i < class_stu[_StudentClass].length; i++)\r\n        if(class_stu[_StudentClass][i] == _StudentID)\r\n        class_stu[_StudentClass][i] = 0;\r\n    }\r\n\r\n    // push the student ID into the class_stu list\r\n    function classPushStudentID (uint _StudentClass, uint _StudentID) {\r\n        if (controllerAuthority(msg.sender))\r\n        class_stu[_StudentClass].push(_StudentID);\r\n    }\r\n\r\n    // set course ID and push course ID into course list\r\n    function setCourseID (uint _CourseID) {\r\n        if (controllerAuthority(msg.sender)) {\r\n            courses[_CourseID].CourseID = _CourseID;\r\n            CourseList.push(_CourseID);\r\n        }\r\n    }\r\n\r\n    // set course name\r\n    function setCourseName (uint _CourseID, string _CourseName) {\r\n        if (controllerAuthority(msg.sender))\r\n        courses[_CourseID].CourseName = _CourseName;\r\n    }\r\n\r\n    // set preview time for the course\r\n    function setCourseRequiredTime (uint _CourseID, uint _RequiredTime) {\r\n        if (controllerAuthority(msg.sender))\r\n        courses[_CourseID].RequiredTime = _RequiredTime;\r\n    }\r\n\r\n    // set advanced courses for the course\r\n    function setCourseAdvanced (uint _CourseID, uint[] _Advanced) {\r\n        if (controllerAuthority(msg.sender))\r\n        courses[_CourseID].Advanced = _Advanced;\r\n    }\r\n\r\n    // set components of the course performance\r\n    function setCoursePercentage (uint _CourseID, uint[] _Percentage) {\r\n        if (controllerAuthority(msg.sender))\r\n        courses[_CourseID].Percentage = _Percentage;\r\n    }\r\n\r\n    // set the course as compulsory or optional\r\n    function setCourseCompulsory (uint _CourseID, bool _Compulsory) {\r\n        if (controllerAuthority(msg.sender))\r\n        courses[_CourseID].Compulsory = _Compulsory;\r\n    }\r\n\r\n    // set course ID for student who choose this course\r\n    function setStuCourseID (uint _StudentID, uint _CourseID, uint _C) {\r\n        if (controllerAuthority(msg.sender))\r\n        students[_StudentID].stu_courses[_CourseID].CourseID = _C;\r\n    }\r\n\r\n    // push course ID into stu_courses_id list\r\n    function stuCourseIDPush (uint _StudentID, uint _CourseID) {\r\n        if (controllerAuthority(msg.sender))\r\n        stu_course_id[_StudentID].push(_CourseID);\r\n    }\r\n\r\n    // clear the courseID in the stu_course_id list\r\n    function stuCourseIDClear (uint _StudentID, uint _CourseID) {\r\n        if (controllerAuthority(msg.sender))\r\n        for (uint sc = 0; sc < stu_course_id[_StudentID].length; sc++)\r\n        if (stu_course_id[_StudentID][sc] == _CourseID)\r\n        stu_course_id[_StudentID][sc] = 0;\r\n    }\r\n\r\n    // push student ID into course_stu_id list\r\n    function courseStuIDPush (uint _StudentID, uint _CourseID) {\r\n        if (controllerAuthority(msg.sender))\r\n        course_stu_id[_CourseID].push(_StudentID);\r\n    }\r\n\r\n    // clear the student ID in the course_stu_id list\r\n    function courseStuIDClear (uint _StudentID, uint _CourseID) {\r\n        if (controllerAuthority(msg.sender))\r\n        for (uint sc = 0; sc < stu_course_id[_StudentID].length; sc++)\r\n        if (course_stu_id[_CourseID][sc] == _StudentID)\r\n        course_stu_id[_CourseID][sc] = 0;\r\n    }\r\n\r\n    // set the start time for preview\r\n    function setStuCourseStartTime (uint _StudentID, uint _CourseID, uint _StartTime) {\r\n        if (controllerAuthority(msg.sender))\r\n        students[_StudentID].stu_courses[_CourseID].StartTime = _StartTime;\r\n    }\r\n\r\n    // set the time of preview\r\n    function setStuCoursePreviewTime (uint _StudentID, uint _CourseID, uint _PreviewTime) {\r\n        if (controllerAuthority(msg.sender))\r\n        students[_StudentID].stu_courses[_CourseID].PreviewTime = _PreviewTime;\r\n    }\r\n\r\n    // set the length of test grade\r\n    function setStuCourseTestGradeLength (uint _StudentID, uint _CourseID, uint _Length) {\r\n        if (controllerAuthority(msg.sender))\r\n        students[_StudentID].stu_courses[_CourseID].TestGrade.length = _Length;\r\n    }\r\n\r\n    // set the specified test grade\r\n    function setStuCourseTestGrade (uint _StudentID, uint _CourseID, uint _TestTimes, uint _TestGrade) {\r\n        if (controllerAuthority(msg.sender))\r\n        students[_StudentID].stu_courses[_CourseID].TestGrade[_TestTimes] = _TestGrade;\r\n    }\r\n\r\n    // confirm the course grade\r\n    function setStuCourseGrade (uint _StudentID, uint _CourseID, uint _CourseGrade) {\r\n        if (controllerAuthority(msg.sender))\r\n        students[_StudentID].stu_courses[_CourseID].CourseGrade = _CourseGrade;\r\n    }\r\n\r\n    // set learning progress\r\n    function setStuCourseLearningProgress (uint _StudentID, uint _CourseID, LearningProgress _Lp) {\r\n        if (controllerAuthority(msg.sender))\r\n        students[_StudentID].stu_courses[_CourseID].Lp = _Lp;\r\n    }\r\n\r\n    // set manager ID and manager's address, push manager ID into manager list\r\n    function dataManagerInsert (uint _ManagerID, address _ManagerAddress) returns (bool){\r\n        if(msg.sender == Controller || (Controller == 0x0 && tx.origin == Owner))\r\n        {\r\n            managers[_ManagerID] = Manager(_ManagerID, _ManagerAddress);\r\n            ManagerList.push(_ManagerID);\r\n            return true;\r\n        }\r\n        else return false;\r\n\r\n    }\r\n\r\n}\r\n",
  "sourcePath": "E:\\workspace\\project-react-cai\\contracts\\StudyData.sol",
  "compiler": {
    "name": "solc",
    "version": "0.4.18+commit.9cf6e910.Emscripten.clang"
  },
  "schemaVersion": "1.0.1",
  "updatedAt": "2017-11-15T02:28:54.051Z"
}